{
  "abi": [
    {
      "inputs": [],
      "stateMutability": "nonpayable",
      "type": "constructor"
    },
    {
      "anonymous": false,
      "inputs": [
        {
          "indexed": true,
          "internalType": "address",
          "name": "addy",
          "type": "address"
        },
        {
          "indexed": false,
          "internalType": "string",
          "name": "message",
          "type": "string"
        }
      ],
      "name": "done",
      "type": "event"
    },
    {
      "inputs": [
        {
          "internalType": "string",
          "name": "description",
          "type": "string"
        },
        {
          "internalType": "address payable",
          "name": "creator",
          "type": "address"
        }
      ],
      "name": "CreateTender",
      "outputs": [],
      "stateMutability": "nonpayable",
      "type": "function"
    },
    {
      "inputs": [],
      "name": "awaiting",
      "outputs": [
        {
          "internalType": "bool",
          "name": "",
          "type": "bool"
        }
      ],
      "stateMutability": "view",
      "type": "function"
    },
    {
      "inputs": [],
      "name": "complete",
      "outputs": [
        {
          "internalType": "bool",
          "name": "",
          "type": "bool"
        }
      ],
      "stateMutability": "view",
      "type": "function"
    },
    {
      "inputs": [],
      "name": "data",
      "outputs": [
        {
          "internalType": "string",
          "name": "",
          "type": "string"
        }
      ],
      "stateMutability": "view",
      "type": "function"
    },
    {
      "inputs": [
        {
          "internalType": "uint256",
          "name": "index",
          "type": "uint256"
        }
      ],
      "name": "finalizeBid",
      "outputs": [],
      "stateMutability": "nonpayable",
      "type": "function"
    },
    {
      "inputs": [],
      "name": "getBidCount",
      "outputs": [
        {
          "internalType": "uint256",
          "name": "ID",
          "type": "uint256"
        }
      ],
      "stateMutability": "view",
      "type": "function"
    },
    {
      "inputs": [
        {
          "internalType": "uint256",
          "name": "index",
          "type": "uint256"
        }
      ],
      "name": "getBidSummary",
      "outputs": [
        {
          "internalType": "address",
          "name": "",
          "type": "address"
        },
        {
          "internalType": "uint256",
          "name": "",
          "type": "uint256"
        },
        {
          "internalType": "string",
          "name": "",
          "type": "string"
        }
      ],
      "stateMutability": "view",
      "type": "function"
    },
    {
      "inputs": [],
      "name": "getSummary",
      "outputs": [
        {
          "internalType": "address",
          "name": "",
          "type": "address"
        },
        {
          "internalType": "string",
          "name": "",
          "type": "string"
        },
        {
          "internalType": "uint256",
          "name": "",
          "type": "uint256"
        }
      ],
      "stateMutability": "view",
      "type": "function"
    },
    {
      "inputs": [],
      "name": "getcontractBalance",
      "outputs": [
        {
          "internalType": "uint256",
          "name": "",
          "type": "uint256"
        }
      ],
      "stateMutability": "view",
      "type": "function"
    },
    {
      "inputs": [
        {
          "internalType": "uint256",
          "name": "",
          "type": "uint256"
        }
      ],
      "name": "hiddenBids",
      "outputs": [
        {
          "internalType": "uint256",
          "name": "ID",
          "type": "uint256"
        },
        {
          "internalType": "uint256",
          "name": "bidAmount",
          "type": "uint256"
        },
        {
          "internalType": "string",
          "name": "bid",
          "type": "string"
        }
      ],
      "stateMutability": "view",
      "type": "function"
    },
    {
      "inputs": [
        {
          "internalType": "uint256",
          "name": "bidAmount",
          "type": "uint256"
        },
        {
          "internalType": "string",
          "name": "desc",
          "type": "string"
        }
      ],
      "name": "makeBid",
      "outputs": [],
      "stateMutability": "nonpayable",
      "type": "function"
    },
    {
      "inputs": [],
      "name": "manager",
      "outputs": [
        {
          "internalType": "address payable",
          "name": "",
          "type": "address"
        }
      ],
      "stateMutability": "view",
      "type": "function"
    },
    {
      "inputs": [
        {
          "internalType": "uint256",
          "name": "_amt",
          "type": "uint256"
        }
      ],
      "name": "payBid",
      "outputs": [],
      "stateMutability": "payable",
      "type": "function"
    },
    {
      "inputs": [],
      "name": "recievePay",
      "outputs": [],
      "stateMutability": "nonpayable",
      "type": "function"
    },
    {
      "inputs": [],
      "name": "status",
      "outputs": [
        {
          "internalType": "string",
          "name": "",
          "type": "string"
        },
        {
          "internalType": "bool",
          "name": "",
          "type": "bool"
        },
        {
          "internalType": "string",
          "name": "",
          "type": "string"
        },
        {
          "internalType": "bool",
          "name": "",
          "type": "bool"
        }
      ],
      "stateMutability": "view",
      "type": "function"
    },
    {
      "inputs": [],
      "name": "verifyManager",
      "outputs": [
        {
          "internalType": "bool",
          "name": "",
          "type": "bool"
        }
      ],
      "stateMutability": "view",
      "type": "function"
    },
    {
      "inputs": [],
      "name": "winIndex",
      "outputs": [
        {
          "internalType": "uint256",
          "name": "",
          "type": "uint256"
        }
      ],
      "stateMutability": "view",
      "type": "function"
    },
    {
      "inputs": [],
      "name": "winner",
      "outputs": [
        {
          "internalType": "address",
          "name": "bidder",
          "type": "address"
        },
        {
          "internalType": "uint256",
          "name": "bidAmount",
          "type": "uint256"
        },
        {
          "internalType": "string",
          "name": "bid",
          "type": "string"
        }
      ],
      "stateMutability": "view",
      "type": "function"
    },
    {
      "inputs": [
        {
          "internalType": "address payable",
          "name": "reciever",
          "type": "address"
        }
      ],
      "name": "withdrawFees",
      "outputs": [],
      "stateMutability": "nonpayable",
      "type": "function"
    }
  ],
  "devdoc": {
    "kind": "dev",
    "methods": {
      "CreateTender(string,address)": {
        "details": "tender() creates new tenders in  tender Factory",
        "params": {
          "creator": "- address of tender creator create new instance of the tender contract.",
          "description": "- details of tender demands"
        }
      },
      "constructor": {
        "details": "initial owner of contract"
      },
      "finalizeBid(uint256)": {
        "details": "finalizeBid is used to award the bid by passing an argument of the index of the bid, It is a payable function, the sender of the call passes some ether to the contract the bidAmount is sent to the chosen bidder, and the balance is sent back to the  manager of the tender."
      }
    },
    "stateVariables": {
      "bids": {
        "details": "bids - array of bidders idhiddenBids - array of bids with address to mitigate baiswinner - finalized bidder winIndex - id of winner in bid[i]"
      }
    },
    "version": 1
  },
  "evm": {
    "assembly": "    /* \"tender.sol\":243:6108  contract Tender {... */\n  mstore(0x40, 0x80)\n    /* \"tender.sol\":2015:2079  constructor()  {... */\n  callvalue\n  dup1\n  iszero\n  tag_1\n  jumpi\n  0x00\n  dup1\n  revert\ntag_1:\n  pop\n    /* \"tender.sol\":2041:2048  manager */\n  0x01\n    /* \"tender.sol\":2041:2071  manager = payable (msg.sender) */\n  dup1\n  sload\n  not(sub(shl(0xa0, 0x01), 0x01))\n  and\n    /* \"tender.sol\":2060:2070  msg.sender */\n  caller\n    /* \"tender.sol\":2041:2071  manager = payable (msg.sender) */\n  or\n  swap1\n  sstore\n    /* \"tender.sol\":243:6108  contract Tender {... */\n  dataSize(sub_0)\n  dup1\n  dataOffset(sub_0)\n  0x00\n  codecopy\n  0x00\n  return\nstop\n\nsub_0: assembly {\n        /* \"tender.sol\":243:6108  contract Tender {... */\n      mstore(0x40, 0x80)\n      jumpi(tag_1, lt(calldatasize, 0x04))\n      shr(0xe0, calldataload(0x00))\n      dup1\n      0x481c6a75\n      gt\n      tag_21\n      jumpi\n      dup1\n      0x91e22d8f\n      gt\n      tag_22\n      jumpi\n      dup1\n      0xcb6cbe8f\n      gt\n      tag_23\n      jumpi\n      dup1\n      0xcb6cbe8f\n      eq\n      tag_18\n      jumpi\n      dup1\n      0xdfbf53ae\n      eq\n      tag_19\n      jumpi\n      dup1\n      0xf82e1552\n      eq\n      tag_20\n      jumpi\n      0x00\n      dup1\n      revert\n    tag_23:\n      dup1\n      0x91e22d8f\n      eq\n      tag_16\n      jumpi\n      dup1\n      0xc8f17094\n      eq\n      tag_17\n      jumpi\n      0x00\n      dup1\n      revert\n    tag_22:\n      dup1\n      0x5d73753f\n      gt\n      tag_24\n      jumpi\n      dup1\n      0x5d73753f\n      eq\n      tag_13\n      jumpi\n      dup1\n      0x73d4a13a\n      eq\n      tag_14\n      jumpi\n      dup1\n      0x8e4d5053\n      eq\n      tag_15\n      jumpi\n      0x00\n      dup1\n      revert\n    tag_24:\n      dup1\n      0x481c6a75\n      eq\n      tag_11\n      jumpi\n      dup1\n      0x522e1177\n      eq\n      tag_12\n      jumpi\n      0x00\n      dup1\n      revert\n    tag_21:\n      dup1\n      0x200d2ed2\n      gt\n      tag_25\n      jumpi\n      dup1\n      0x2a4230e2\n      gt\n      tag_26\n      jumpi\n      dup1\n      0x2a4230e2\n      eq\n      tag_8\n      jumpi\n      dup1\n      0x4051ddac\n      eq\n      tag_9\n      jumpi\n      dup1\n      0x4281cebf\n      eq\n      tag_10\n      jumpi\n      0x00\n      dup1\n      revert\n    tag_26:\n      dup1\n      0x200d2ed2\n      eq\n      tag_6\n      jumpi\n      dup1\n      0x28f6a48a\n      eq\n      tag_7\n      jumpi\n      0x00\n      dup1\n      revert\n    tag_25:\n      dup1\n      0x0a46572f\n      eq\n      tag_2\n      jumpi\n      dup1\n      0x10d2f82f\n      eq\n      tag_3\n      jumpi\n      dup1\n      0x164e68de\n      eq\n      tag_4\n      jumpi\n      dup1\n      0x1e1769ed\n      eq\n      tag_5\n      jumpi\n    tag_1:\n      0x00\n      dup1\n      revert\n        /* \"tender.sol\":1499:1522  uint256 public winIndex */\n    tag_2:\n      callvalue\n      dup1\n      iszero\n      tag_27\n      jumpi\n      0x00\n      dup1\n      revert\n    tag_27:\n      pop\n      tag_28\n      sload(0x07)\n      dup2\n      jump\n    tag_28:\n      mload(0x40)\n        /* \"#utility.yul\":160:185   */\n      swap1\n      dup2\n      mstore\n        /* \"#utility.yul\":148:150   */\n      0x20\n        /* \"#utility.yul\":133:151   */\n      add\n        /* \"tender.sol\":1499:1522  uint256 public winIndex */\n    tag_30:\n      mload(0x40)\n      dup1\n      swap2\n      sub\n      swap1\n      return\n        /* \"tender.sol\":5648:5746  function verifyManager() public view returns (bool) {... */\n    tag_3:\n      callvalue\n      dup1\n      iszero\n      tag_32\n      jumpi\n      0x00\n      dup1\n      revert\n    tag_32:\n      pop\n      tag_33\n        /* \"tender.sol\":5718:5725  manager */\n      and(sub(shl(0xa0, 0x01), 0x01), sload(0x01))\n        /* \"tender.sol\":5727:5737  msg.sender */\n      caller\n        /* \"tender.sol\":5718:5737  manager==msg.sender */\n      eq\n      swap1\n        /* \"tender.sol\":5648:5746  function verifyManager() public view returns (bool) {... */\n      jump\n    tag_33:\n      mload(0x40)\n        /* \"#utility.yul\":361:375   */\n      swap1\n      iszero\n        /* \"#utility.yul\":354:376   */\n      iszero\n        /* \"#utility.yul\":336:377   */\n      dup2\n      mstore\n        /* \"#utility.yul\":324:326   */\n      0x20\n        /* \"#utility.yul\":309:327   */\n      add\n        /* \"tender.sol\":5648:5746  function verifyManager() public view returns (bool) {... */\n      tag_30\n        /* \"#utility.yul\":196:383   */\n      jump\n        /* \"tender.sol\":5046:5171  function withdrawFees(address payable reciever) public onlyowner(){... */\n    tag_4:\n      callvalue\n      dup1\n      iszero\n      tag_37\n      jumpi\n      0x00\n      dup1\n      revert\n    tag_37:\n      pop\n      tag_38\n      tag_39\n      calldatasize\n      0x04\n      tag_40\n      jump\t// in\n    tag_39:\n      tag_41\n      jump\t// in\n    tag_38:\n      stop\n        /* \"tender.sol\":4617:5038  function payBid(uint256 _amt) external payable {... */\n    tag_5:\n      tag_38\n      tag_43\n      calldatasize\n      0x04\n      tag_44\n      jump\t// in\n    tag_43:\n      tag_45\n      jump\t// in\n        /* \"tender.sol\":5758:5994  function status() public view returns(string memory, bool, string memory, bool)... */\n    tag_6:\n      callvalue\n      dup1\n      iszero\n      tag_46\n      jumpi\n      0x00\n      dup1\n      revert\n    tag_46:\n      pop\n        /* \"tender.sol\":5854:5888  string memory stats = \"complete: \" */\n      0x40\n      dup1\n      mload\n      dup1\n      dup3\n      add\n      dup3\n      mstore\n      0x0a\n      dup2\n      mstore\n      0x636f6d706c6574653a2000000000000000000000000000000000000000000000\n      0x20\n      dup1\n      dup4\n      add\n      swap2\n      swap1\n      swap2\n      mstore\n        /* \"tender.sol\":5899:5933  string memory stats2 = \"Awating: \" */\n      dup3\n      mload\n      dup1\n      dup5\n      add\n      swap1\n      swap4\n      mstore\n      0x09\n      dup4\n      mstore\n      0x41776174696e673a200000000000000000000000000000000000000000000000\n      swap1\n      dup4\n      add\n      mstore\n        /* \"tender.sol\":5959:5967  complete */\n      sload(0x01)\n        /* \"tender.sol\":5854:5888  string memory stats = \"complete: \" */\n      swap1\n      swap2\n        /* \"tender.sol\":5959:5967  complete */\n      0xff\n      shl(0xb0, 0x01)\n      dup4\n      div\n      dup2\n      and\n      swap3\n      shl(0xa8, 0x01)\n        /* \"tender.sol\":5977:5985  awaiting */\n      swap1\n      div\n      and\n        /* \"tender.sol\":5758:5994  function status() public view returns(string memory, bool, string memory, bool)... */\n      mload(0x40)\n      tag_30\n      swap5\n      swap4\n      swap3\n      swap2\n      swap1\n      tag_50\n      jump\t// in\n        /* \"tender.sol\":5544:5634  function getBidCount() public view returns (uint ID) {... */\n    tag_7:\n      callvalue\n      dup1\n      iszero\n      tag_51\n      jumpi\n      0x00\n      dup1\n      revert\n    tag_51:\n      pop\n        /* \"tender.sol\":5615:5619  bids */\n      0x02\n        /* \"tender.sol\":5615:5626  bids.length */\n      sload\n        /* \"tender.sol\":5544:5634  function getBidCount() public view returns (uint ID) {... */\n      jump(tag_28)\n        /* \"tender.sol\":3377:4016  function makeBid(uint256 bidAmount, string memory desc)  public... */\n    tag_8:\n      callvalue\n      dup1\n      iszero\n      tag_55\n      jumpi\n      0x00\n      dup1\n      revert\n    tag_55:\n      pop\n      tag_38\n      tag_57\n      calldatasize\n      0x04\n      tag_58\n      jump\t// in\n    tag_57:\n      tag_59\n      jump\t// in\n        /* \"tender.sol\":5394:5538  function getSummary() public view returns (address, string memory, uint) {... */\n    tag_9:\n      callvalue\n      dup1\n      iszero\n      tag_60\n      jumpi\n      0x00\n      dup1\n      revert\n    tag_60:\n      pop\n      tag_61\n      tag_62\n      jump\t// in\n    tag_61:\n      mload(0x40)\n      tag_30\n      swap4\n      swap3\n      swap2\n      swap1\n      tag_64\n      jump\t// in\n        /* \"tender.sol\":5179:5386  function recievePay() public onlyowner() {... */\n    tag_10:\n      callvalue\n      dup1\n      iszero\n      tag_65\n      jumpi\n      0x00\n      dup1\n      revert\n    tag_65:\n      pop\n      tag_38\n      tag_67\n      jump\t// in\n        /* \"tender.sol\":380:410  address payable public manager */\n    tag_11:\n      callvalue\n      dup1\n      iszero\n      tag_68\n      jumpi\n      0x00\n      dup1\n      revert\n    tag_68:\n      pop\n      sload(0x01)\n      tag_69\n      swap1\n      sub(shl(0xa0, 0x01), 0x01)\n      and\n      dup2\n      jump\n    tag_69:\n      mload(0x40)\n      sub(shl(0xa0, 0x01), 0x01)\n        /* \"#utility.yul\":3816:3871   */\n      swap1\n      swap2\n      and\n        /* \"#utility.yul\":3798:3872   */\n      dup2\n      mstore\n        /* \"#utility.yul\":3786:3788   */\n      0x20\n        /* \"#utility.yul\":3771:3789   */\n      add\n        /* \"tender.sol\":380:410  address payable public manager */\n      tag_30\n        /* \"#utility.yul\":3636:3878   */\n      jump\n        /* \"tender.sol\":464:484  bool public complete */\n    tag_12:\n      callvalue\n      dup1\n      iszero\n      tag_73\n      jumpi\n      0x00\n      dup1\n      revert\n    tag_73:\n      pop\n      sload(0x01)\n      tag_33\n      swap1\n      shl(0xb0, 0x01)\n      swap1\n      div\n      0xff\n      and\n      dup2\n      jump\n        /* \"tender.sol\":437:457  bool public awaiting */\n    tag_13:\n      callvalue\n      dup1\n      iszero\n      tag_77\n      jumpi\n      0x00\n      dup1\n      revert\n    tag_77:\n      pop\n      sload(0x01)\n      tag_33\n      swap1\n      shl(0xa8, 0x01)\n      swap1\n      div\n      0xff\n      and\n      dup2\n      jump\n        /* \"tender.sol\":323:341  string public data */\n    tag_14:\n      callvalue\n      dup1\n      iszero\n      tag_81\n      jumpi\n      0x00\n      dup1\n      revert\n    tag_81:\n      pop\n      tag_82\n      tag_83\n      jump\t// in\n    tag_82:\n      mload(0x40)\n      tag_30\n      swap2\n      swap1\n      tag_85\n      jump\t// in\n        /* \"tender.sol\":6002:6105  function getcontractBalance() public view returns (uint){... */\n    tag_15:\n      callvalue\n      dup1\n      iszero\n      tag_86\n      jumpi\n      0x00\n      dup1\n      revert\n    tag_86:\n      pop\n        /* \"tender.sol\":6076:6097  address(this).balance */\n      selfbalance\n        /* \"tender.sol\":6002:6105  function getcontractBalance() public view returns (uint){... */\n      jump(tag_28)\n        /* \"tender.sol\":2434:2721  function CreateTender(string memory description, address payable creator) public virtual... */\n    tag_16:\n      callvalue\n      dup1\n      iszero\n      tag_90\n      jumpi\n      0x00\n      dup1\n      revert\n    tag_90:\n      pop\n      tag_38\n      tag_92\n      calldatasize\n      0x04\n      tag_93\n      jump\t// in\n    tag_92:\n      tag_94\n      jump\t// in\n        /* \"tender.sol\":1439:1468  hiddenBid[] public hiddenBids */\n    tag_17:\n      callvalue\n      dup1\n      iszero\n      tag_95\n      jumpi\n      0x00\n      dup1\n      revert\n    tag_95:\n      pop\n      tag_96\n      tag_97\n      calldatasize\n      0x04\n      tag_44\n      jump\t// in\n    tag_97:\n      tag_98\n      jump\t// in\n    tag_96:\n      mload(0x40)\n      tag_30\n      swap4\n      swap3\n      swap2\n      swap1\n      tag_100\n      jump\t// in\n        /* \"tender.sol\":4341:4605  function finalizeBid(uint index) public onlyowner() {... */\n    tag_18:\n      callvalue\n      dup1\n      iszero\n      tag_101\n      jumpi\n      0x00\n      dup1\n      revert\n    tag_101:\n      pop\n      tag_38\n      tag_103\n      calldatasize\n      0x04\n      tag_44\n      jump\t// in\n    tag_103:\n      tag_104\n      jump\t// in\n        /* \"tender.sol\":1475:1492  Bid public winner */\n    tag_19:\n      callvalue\n      dup1\n      iszero\n      tag_105\n      jumpi\n      0x00\n      dup1\n      revert\n    tag_105:\n      pop\n      tag_106\n      tag_107\n      jump\t// in\n    tag_106:\n      mload(0x40)\n      tag_30\n      swap4\n      swap3\n      swap2\n      swap1\n      tag_109\n      jump\t// in\n        /* \"tender.sol\":2912:3134  function getBidSummary(uint index) public view returns (address, uint, string memory) {... */\n    tag_20:\n      callvalue\n      dup1\n      iszero\n      tag_110\n      jumpi\n      0x00\n      dup1\n      revert\n    tag_110:\n      pop\n      tag_106\n      tag_112\n      calldatasize\n      0x04\n      tag_44\n      jump\t// in\n    tag_112:\n      tag_113\n      jump\t// in\n        /* \"tender.sol\":5046:5171  function withdrawFees(address payable reciever) public onlyowner(){... */\n    tag_41:\n        /* \"tender.sol\":2144:2151  manager */\n      and(sub(shl(0xa0, 0x01), 0x01), sload(0x01))\n        /* \"tender.sol\":2132:2142  msg.sender */\n      caller\n        /* \"tender.sol\":2132:2151  msg.sender==manager */\n      eq\n        /* \"tender.sol\":2124:2168  require(msg.sender==manager,\"Access Denied\") */\n      tag_117\n      jumpi\n      mload(0x40)\n      shl(0xe5, 0x461bcd)\n      dup2\n      mstore\n        /* \"#utility.yul\":5510:5512   */\n      0x20\n        /* \"tender.sol\":2124:2168  require(msg.sender==manager,\"Access Denied\") */\n      0x04\n      dup3\n      add\n        /* \"#utility.yul\":5492:5513   */\n      mstore\n        /* \"#utility.yul\":5549:5551   */\n      0x0d\n        /* \"#utility.yul\":5529:5547   */\n      0x24\n      dup3\n      add\n        /* \"#utility.yul\":5522:5552   */\n      mstore\n      shl(0x9a, 0x1058d8d95cdcc811195b9a5959)\n        /* \"#utility.yul\":5568:5586   */\n      0x44\n      dup3\n      add\n        /* \"#utility.yul\":5561:5604   */\n      mstore\n        /* \"#utility.yul\":5621:5639   */\n      0x64\n      add\n        /* \"tender.sol\":2124:2168  require(msg.sender==manager,\"Access Denied\") */\n    tag_118:\n      mload(0x40)\n      dup1\n      swap2\n      sub\n      swap1\n      revert\n    tag_117:\n        /* \"tender.sol\":5123:5163  reciever.transfer(address(this).balance) */\n      mload(0x40)\n      sub(shl(0xa0, 0x01), 0x01)\n        /* \"tender.sol\":5123:5140  reciever.transfer */\n      dup3\n      and\n      swap1\n        /* \"tender.sol\":5141:5162  address(this).balance */\n      selfbalance\n        /* \"tender.sol\":5123:5163  reciever.transfer(address(this).balance) */\n      dup1\n      iszero\n      0x08fc\n      mul\n      swap2\n      0x00\n      dup2\n      dup2\n      dup2\n        /* \"tender.sol\":5141:5162  address(this).balance */\n      dup6\n        /* \"tender.sol\":5123:5140  reciever.transfer */\n      dup9\n        /* \"tender.sol\":5123:5163  reciever.transfer(address(this).balance) */\n      dup9\n      call\n      swap4\n      pop\n      pop\n      pop\n      pop\n      iszero\n      dup1\n      iszero\n      tag_122\n      jumpi\n      returndatasize\n      0x00\n      dup1\n      returndatacopy\n      revert(0x00, returndatasize)\n    tag_122:\n      pop\n        /* \"tender.sol\":5046:5171  function withdrawFees(address payable reciever) public onlyowner(){... */\n      pop\n      jump\t// out\n        /* \"tender.sol\":4617:5038  function payBid(uint256 _amt) external payable {... */\n    tag_45:\n        /* \"tender.sol\":4697:4703  winner */\n      0x04\n        /* \"tender.sol\":4697:4710  winner.bidder */\n      sload\n      sub(shl(0xa0, 0x01), 0x01)\n      and\n        /* \"tender.sol\":4683:4693  msg.sender */\n      caller\n        /* \"tender.sol\":4683:4710  msg.sender == winner.bidder */\n      eq\n        /* \"tender.sol\":4675:4736  require(msg.sender == winner.bidder, \"Not authorized bidder\") */\n      tag_124\n      jumpi\n      mload(0x40)\n      shl(0xe5, 0x461bcd)\n      dup2\n      mstore\n        /* \"#utility.yul\":5852:5854   */\n      0x20\n        /* \"tender.sol\":4675:4736  require(msg.sender == winner.bidder, \"Not authorized bidder\") */\n      0x04\n      dup3\n      add\n        /* \"#utility.yul\":5834:5855   */\n      mstore\n        /* \"#utility.yul\":5891:5893   */\n      0x15\n        /* \"#utility.yul\":5871:5889   */\n      0x24\n      dup3\n      add\n        /* \"#utility.yul\":5864:5894   */\n      mstore\n        /* \"#utility.yul\":5930:5953   */\n      0x4e6f7420617574686f72697a6564206269646465720000000000000000000000\n        /* \"#utility.yul\":5910:5928   */\n      0x44\n      dup3\n      add\n        /* \"#utility.yul\":5903:5954   */\n      mstore\n        /* \"#utility.yul\":5971:5989   */\n      0x64\n      add\n        /* \"tender.sol\":4675:4736  require(msg.sender == winner.bidder, \"Not authorized bidder\") */\n      tag_118\n        /* \"#utility.yul\":5650:5995   */\n      jump\n        /* \"tender.sol\":4675:4736  require(msg.sender == winner.bidder, \"Not authorized bidder\") */\n    tag_124:\n        /* \"tender.sol\":4768:4778  bid_amount */\n      sload(0x08)\n        /* \"tender.sol\":4755:4764  msg.value */\n      callvalue\n        /* \"tender.sol\":4755:4778  msg.value >= bid_amount */\n      lt\n      iszero\n        /* \"tender.sol\":4747:4802  require(msg.value >= bid_amount, \"insufficient funds!\") */\n      tag_127\n      jumpi\n      mload(0x40)\n      shl(0xe5, 0x461bcd)\n      dup2\n      mstore\n        /* \"#utility.yul\":6202:6204   */\n      0x20\n        /* \"tender.sol\":4747:4802  require(msg.value >= bid_amount, \"insufficient funds!\") */\n      0x04\n      dup3\n      add\n        /* \"#utility.yul\":6184:6205   */\n      mstore\n        /* \"#utility.yul\":6241:6243   */\n      0x13\n        /* \"#utility.yul\":6221:6239   */\n      0x24\n      dup3\n      add\n        /* \"#utility.yul\":6214:6244   */\n      mstore\n        /* \"#utility.yul\":6280:6301   */\n      0x696e73756666696369656e742066756e64732100000000000000000000000000\n        /* \"#utility.yul\":6260:6278   */\n      0x44\n      dup3\n      add\n        /* \"#utility.yul\":6253:6302   */\n      mstore\n        /* \"#utility.yul\":6319:6337   */\n      0x64\n      add\n        /* \"tender.sol\":4747:4802  require(msg.value >= bid_amount, \"insufficient funds!\") */\n      tag_118\n        /* \"#utility.yul\":6000:6343   */\n      jump\n        /* \"tender.sol\":4747:4802  require(msg.value >= bid_amount, \"insufficient funds!\") */\n    tag_127:\n        /* \"tender.sol\":4825:4835  bid_amount */\n      sload(0x08)\n        /* \"tender.sol\":4817:4821  _amt */\n      dup2\n        /* \"tender.sol\":4817:4835  _amt != bid_amount */\n      eq\n        /* \"tender.sol\":4813:4901  if (_amt != bid_amount){... */\n      tag_130\n      jumpi\n        /* \"tender.sol\":4851:4889  revert(\"value is not what was agreed\") */\n      mload(0x40)\n      shl(0xe5, 0x461bcd)\n      dup2\n      mstore\n        /* \"#utility.yul\":6550:6552   */\n      0x20\n        /* \"tender.sol\":4851:4889  revert(\"value is not what was agreed\") */\n      0x04\n      dup3\n      add\n        /* \"#utility.yul\":6532:6553   */\n      mstore\n        /* \"#utility.yul\":6589:6591   */\n      0x1c\n        /* \"#utility.yul\":6569:6587   */\n      0x24\n      dup3\n      add\n        /* \"#utility.yul\":6562:6592   */\n      mstore\n        /* \"#utility.yul\":6628:6658   */\n      0x76616c7565206973206e6f742077686174207761732061677265656400000000\n        /* \"#utility.yul\":6608:6626   */\n      0x44\n      dup3\n      add\n        /* \"#utility.yul\":6601:6659   */\n      mstore\n        /* \"#utility.yul\":6676:6694   */\n      0x64\n      add\n        /* \"tender.sol\":4851:4889  revert(\"value is not what was agreed\") */\n      tag_118\n        /* \"#utility.yul\":6348:6700   */\n      jump\n        /* \"tender.sol\":4813:4901  if (_amt != bid_amount){... */\n    tag_130:\n        /* \"tender.sol\":4911:4919  awaiting */\n      0x01\n        /* \"tender.sol\":4911:4927  awaiting = false */\n      dup1\n      sload\n        /* \"tender.sol\":4938:4953  complete = true */\n      0xffffffffffffffffff0000ffffffffffffffffffffffffffffffffffffffffff\n      and\n      shl(0xb0, 0x01)\n      or\n      swap1\n      sstore\n        /* \"tender.sol\":4998:5030  done(msg.sender, \"Payment made\") */\n      mload(0x40)\n        /* \"tender.sol\":5003:5013  msg.sender */\n      caller\n      swap1\n        /* \"tender.sol\":4998:5030  done(msg.sender, \"Payment made\") */\n      0xddb3e8e092f582b287e510e57287106c0231b91b97d25c5872442924378808e9\n      swap1\n      tag_133\n      swap1\n        /* \"#utility.yul\":6907:6909   */\n      0x20\n        /* \"#utility.yul\":6889:6910   */\n      dup1\n      dup3\n      mstore\n        /* \"#utility.yul\":6946:6948   */\n      0x0c\n        /* \"#utility.yul\":6926:6944   */\n      swap1\n      dup3\n      add\n        /* \"#utility.yul\":6919:6949   */\n      mstore\n        /* \"#utility.yul\":6985:6999   */\n      0x5061796d656e74206d6164650000000000000000000000000000000000000000\n        /* \"#utility.yul\":6980:6982   */\n      0x40\n        /* \"#utility.yul\":6965:6983   */\n      dup3\n      add\n        /* \"#utility.yul\":6958:7000   */\n      mstore\n        /* \"#utility.yul\":7032:7034   */\n      0x60\n        /* \"#utility.yul\":7017:7035   */\n      add\n      swap1\n        /* \"#utility.yul\":6705:7041   */\n      jump\n        /* \"tender.sol\":4998:5030  done(msg.sender, \"Payment made\") */\n    tag_133:\n      mload(0x40)\n      dup1\n      swap2\n      sub\n      swap1\n      log2\n        /* \"tender.sol\":4617:5038  function payBid(uint256 _amt) external payable {... */\n      pop\n      jump\t// out\n        /* \"tender.sol\":3377:4016  function makeBid(uint256 bidAmount, string memory desc)  public... */\n    tag_59:\n        /* \"tender.sol\":3471:3478  manager */\n      and(sub(shl(0xa0, 0x01), 0x01), sload(0x01))\n        /* \"tender.sol\":3459:3469  msg.sender */\n      caller\n        /* \"tender.sol\":3459:3478  msg.sender==manager */\n      sub\n        /* \"tender.sol\":3449:3480  require(!(msg.sender==manager)) */\n      tag_138\n      jumpi\n      0x00\n      dup1\n      revert\n    tag_138:\n        /* \"tender.sol\":3499:3507  complete */\n      sload(0x01)\n      shl(0xb0, 0x01)\n      swap1\n      div\n      0xff\n      and\n        /* \"tender.sol\":3498:3507  !complete */\n      iszero\n        /* \"tender.sol\":3490:3508  require(!complete) */\n      tag_139\n      jumpi\n      0x00\n      dup1\n      revert\n    tag_139:\n        /* \"tender.sol\":3548:3659  Bid({... */\n      0x40\n      dup1\n      mload\n      0x60\n      dup2\n      add\n      dup3\n      mstore\n        /* \"tender.sol\":3576:3586  msg.sender */\n      caller\n        /* \"tender.sol\":3548:3659  Bid({... */\n      dup2\n      mstore\n      0x20\n      dup2\n      add\n      dup5\n      dup2\n      mstore\n      swap2\n      dup2\n      add\n      dup4\n      dup2\n      mstore\n        /* \"tender.sol\":3670:3674  bids */\n      0x02\n        /* \"tender.sol\":3670:3687  bids.push(newBid) */\n      dup1\n      sload\n      0x01\n      dup2\n      add\n      dup3\n      sstore\n      0x00\n      swap2\n      swap1\n      swap2\n      mstore\n      dup3\n      mload\n      0x405787fa12a823e0f2b7631cc41b3ba8828b3321ca811111fa75cd3aa3bb5ace\n      0x03\n      swap1\n      swap3\n      mul\n      swap2\n      dup3\n      add\n      dup1\n      sload\n      not(0xffffffffffffffffffffffffffffffffffffffff)\n      and\n      sub(shl(0xa0, 0x01), 0x01)\n      swap1\n      swap3\n      and\n      swap2\n      swap1\n      swap2\n      or\n      dup2\n      sstore\n      swap4\n      mload\n      0x405787fa12a823e0f2b7631cc41b3ba8828b3321ca811111fa75cd3aa3bb5acf\n      dup3\n      add\n      sstore\n      swap1\n      mload\n        /* \"tender.sol\":3548:3659  Bid({... */\n      swap2\n      swap3\n      dup4\n      swap3\n        /* \"tender.sol\":3670:3687  bids.push(newBid) */\n      swap1\n      swap2\n      0x405787fa12a823e0f2b7631cc41b3ba8828b3321ca811111fa75cd3aa3bb5ad0\n      add\n      swap1\n      tag_141\n      swap1\n      dup3\n      tag_142\n      jump\t// in\n    tag_141:\n      pop\n      pop\n        /* \"tender.sol\":3730:3872  hiddenBid({... */\n      0x40\n      dup1\n      mload\n      0x60\n      dup2\n      add\n      dup3\n      mstore\n        /* \"tender.sol\":3760:3764  bids */\n      0x02\n        /* \"tender.sol\":3760:3771  bids.length */\n      sload\n        /* \"tender.sol\":3730:3872  hiddenBid({... */\n      dup2\n      mstore\n      0x20\n      dup2\n      add\n      dup7\n      dup2\n      mstore\n      swap2\n      dup2\n      add\n      dup6\n      dup2\n      mstore\n        /* \"tender.sol\":3883:3893  hiddenBids */\n      0x03\n        /* \"tender.sol\":3883:3912  hiddenBids.push(newhiddenBid) */\n      dup1\n      sload\n      0x01\n      dup2\n      add\n      dup3\n      sstore\n        /* \"tender.sol\":3698:3727  hiddenBid memory newhiddenBid */\n      0x00\n        /* \"tender.sol\":3883:3912  hiddenBids.push(newhiddenBid) */\n      dup3\n      swap1\n      mstore\n      dup4\n      mload\n      swap2\n      mul\n      0xc2575a0e9e593c00f959f8c92f12db2869c3395a3b0502d05e2516446f71f85b\n      dup2\n      add\n      swap2\n      dup3\n      sstore\n      swap4\n      mload\n      0xc2575a0e9e593c00f959f8c92f12db2869c3395a3b0502d05e2516446f71f85c\n      dup6\n      add\n      sstore\n      swap1\n      mload\n        /* \"tender.sol\":3730:3872  hiddenBid({... */\n      swap2\n      swap4\n      pop\n      dup4\n      swap3\n        /* \"tender.sol\":3883:3912  hiddenBids.push(newhiddenBid) */\n      swap1\n      swap2\n      0xc2575a0e9e593c00f959f8c92f12db2869c3395a3b0502d05e2516446f71f85d\n      swap1\n      swap2\n      add\n      swap1\n      tag_144\n      swap1\n      dup3\n      tag_142\n      jump\t// in\n    tag_144:\n      pop\n      pop\n      pop\n        /* \"tender.sol\":3977:3987  msg.sender */\n      caller\n      sub(shl(0xa0, 0x01), 0x01)\n        /* \"tender.sol\":3972:4008  done(msg.sender,\"Created a new bid\") */\n      and\n      0xddb3e8e092f582b287e510e57287106c0231b91b97d25c5872442924378808e9\n      mload(0x40)\n      tag_145\n      swap1\n        /* \"#utility.yul\":9837:9839   */\n      0x20\n        /* \"#utility.yul\":9819:9840   */\n      dup1\n      dup3\n      mstore\n        /* \"#utility.yul\":9876:9878   */\n      0x11\n        /* \"#utility.yul\":9856:9874   */\n      swap1\n      dup3\n      add\n        /* \"#utility.yul\":9849:9879   */\n      mstore\n        /* \"#utility.yul\":9915:9934   */\n      0x437265617465642061206e657720626964000000000000000000000000000000\n        /* \"#utility.yul\":9910:9912   */\n      0x40\n        /* \"#utility.yul\":9895:9913   */\n      dup3\n      add\n        /* \"#utility.yul\":9888:9935   */\n      mstore\n        /* \"#utility.yul\":9967:9969   */\n      0x60\n        /* \"#utility.yul\":9952:9970   */\n      add\n      swap1\n        /* \"#utility.yul\":9635:9976   */\n      jump\n        /* \"tender.sol\":3972:4008  done(msg.sender,\"Created a new bid\") */\n    tag_145:\n      mload(0x40)\n      dup1\n      swap2\n      sub\n      swap1\n      log2\n        /* \"tender.sol\":3446:4016  {  require(!(msg.sender==manager));... */\n      pop\n      pop\n        /* \"tender.sol\":3377:4016  function makeBid(uint256 bidAmount, string memory desc)  public... */\n      pop\n      pop\n      jump\t// out\n        /* \"tender.sol\":5394:5538  function getSummary() public view returns (address, string memory, uint) {... */\n    tag_62:\n        /* \"tender.sol\":5437:5444  address */\n      0x00\n        /* \"tender.sol\":5446:5459  string memory */\n      0x60\n        /* \"tender.sol\":5461:5465  uint */\n      0x00\n        /* \"tender.sol\":5485:5492  manager */\n      0x01\n      0x00\n      swap1\n      sload\n      swap1\n      0x0100\n      exp\n      swap1\n      div\n      sub(shl(0xa0, 0x01), 0x01)\n      and\n        /* \"tender.sol\":5503:5507  data */\n      0x00\n        /* \"tender.sol\":5518:5522  bids */\n      0x02\n        /* \"tender.sol\":5518:5529  bids.length */\n      dup1\n      sload\n      swap1\n      pop\n        /* \"tender.sol\":5478:5530  return(manager,... */\n      dup2\n      dup1\n      sload\n      tag_148\n      swap1\n      tag_149\n      jump\t// in\n    tag_148:\n      dup1\n      0x1f\n      add\n      0x20\n      dup1\n      swap2\n      div\n      mul\n      0x20\n      add\n      mload(0x40)\n      swap1\n      dup2\n      add\n      0x40\n      mstore\n      dup1\n      swap3\n      swap2\n      swap1\n      dup2\n      dup2\n      mstore\n      0x20\n      add\n      dup3\n      dup1\n      sload\n      tag_150\n      swap1\n      tag_149\n      jump\t// in\n    tag_150:\n      dup1\n      iszero\n      tag_151\n      jumpi\n      dup1\n      0x1f\n      lt\n      tag_152\n      jumpi\n      0x0100\n      dup1\n      dup4\n      sload\n      div\n      mul\n      dup4\n      mstore\n      swap2\n      0x20\n      add\n      swap2\n      jump(tag_151)\n    tag_152:\n      dup3\n      add\n      swap2\n      swap1\n      0x00\n      mstore\n      keccak256(0x00, 0x20)\n      swap1\n    tag_153:\n      dup2\n      sload\n      dup2\n      mstore\n      swap1\n      0x01\n      add\n      swap1\n      0x20\n      add\n      dup1\n      dup4\n      gt\n      tag_153\n      jumpi\n      dup3\n      swap1\n      sub\n      0x1f\n      and\n      dup3\n      add\n      swap2\n    tag_151:\n      pop\n      pop\n      pop\n      pop\n      pop\n      swap2\n      pop\n      swap3\n      pop\n      swap3\n      pop\n      swap3\n      pop\n        /* \"tender.sol\":5394:5538  function getSummary() public view returns (address, string memory, uint) {... */\n      swap1\n      swap2\n      swap3\n      jump\t// out\n        /* \"tender.sol\":5179:5386  function recievePay() public onlyowner() {... */\n    tag_67:\n        /* \"tender.sol\":2144:2151  manager */\n      and(sub(shl(0xa0, 0x01), 0x01), sload(0x01))\n        /* \"tender.sol\":2132:2142  msg.sender */\n      caller\n        /* \"tender.sol\":2132:2151  msg.sender==manager */\n      eq\n        /* \"tender.sol\":2124:2168  require(msg.sender==manager,\"Access Denied\") */\n      tag_155\n      jumpi\n      mload(0x40)\n      shl(0xe5, 0x461bcd)\n      dup2\n      mstore\n        /* \"#utility.yul\":5510:5512   */\n      0x20\n        /* \"tender.sol\":2124:2168  require(msg.sender==manager,\"Access Denied\") */\n      0x04\n      dup3\n      add\n        /* \"#utility.yul\":5492:5513   */\n      mstore\n        /* \"#utility.yul\":5549:5551   */\n      0x0d\n        /* \"#utility.yul\":5529:5547   */\n      0x24\n      dup3\n      add\n        /* \"#utility.yul\":5522:5552   */\n      mstore\n      shl(0x9a, 0x1058d8d95cdcc811195b9a5959)\n        /* \"#utility.yul\":5568:5586   */\n      0x44\n      dup3\n      add\n        /* \"#utility.yul\":5561:5604   */\n      mstore\n        /* \"#utility.yul\":5621:5639   */\n      0x64\n      add\n        /* \"tender.sol\":2124:2168  require(msg.sender==manager,\"Access Denied\") */\n      tag_118\n        /* \"#utility.yul\":5308:5645   */\n      jump\n        /* \"tender.sol\":2124:2168  require(msg.sender==manager,\"Access Denied\") */\n    tag_155:\n        /* \"tender.sol\":5273:5276  100 */\n      0x64\n        /* \"tender.sol\":5256:5266  bid_amount */\n      sload(0x08)\n        /* \"tender.sol\":5269:5270  3 */\n      0x03\n        /* \"tender.sol\":5256:5270  bid_amount * 3 */\n      tag_158\n      swap2\n      swap1\n      tag_159\n      jump\t// in\n    tag_158:\n        /* \"tender.sol\":5256:5276  bid_amount * 3 / 100 */\n      tag_160\n      swap2\n      swap1\n      tag_161\n      jump\t// in\n    tag_160:\n        /* \"tender.sol\":5231:5277  address(this).balance - (bid_amount * 3 / 100) */\n      tag_162\n      swap1\n        /* \"tender.sol\":5231:5252  address(this).balance */\n      selfbalance\n        /* \"tender.sol\":5231:5277  address(this).balance - (bid_amount * 3 / 100) */\n      tag_163\n      jump\t// in\n    tag_162:\n      pop\n        /* \"tender.sol\":5288:5295  manager */\n      sload(0x01)\n        /* \"tender.sol\":5288:5327  manager.transfer(address(this).balance) */\n      mload(0x40)\n      sub(shl(0xa0, 0x01), 0x01)\n        /* \"tender.sol\":5288:5295  manager */\n      swap1\n      swap2\n      and\n      swap1\n        /* \"tender.sol\":5305:5326  address(this).balance */\n      selfbalance\n        /* \"tender.sol\":5288:5327  manager.transfer(address(this).balance) */\n      dup1\n      iszero\n      0x08fc\n      mul\n      swap2\n        /* \"tender.sol\":5288:5295  manager */\n      0x00\n        /* \"tender.sol\":5288:5327  manager.transfer(address(this).balance) */\n      dup2\n        /* \"tender.sol\":5288:5295  manager */\n      dup2\n        /* \"tender.sol\":5288:5327  manager.transfer(address(this).balance) */\n      dup2\n        /* \"tender.sol\":5305:5326  address(this).balance */\n      dup6\n        /* \"tender.sol\":5288:5295  manager */\n      dup9\n        /* \"tender.sol\":5288:5327  manager.transfer(address(this).balance) */\n      dup9\n      call\n      swap4\n      pop\n      pop\n      pop\n      pop\n      iszero\n      dup1\n      iszero\n      tag_165\n      jumpi\n      returndatasize\n      0x00\n      dup1\n      returndatacopy\n      revert(0x00, returndatasize)\n    tag_165:\n      pop\n        /* \"tender.sol\":5348:5358  msg.sender */\n      caller\n      sub(shl(0xa0, 0x01), 0x01)\n        /* \"tender.sol\":5343:5378  done(msg.sender, \"Claimed payment\") */\n      and\n      0xddb3e8e092f582b287e510e57287106c0231b91b97d25c5872442924378808e9\n      mload(0x40)\n      tag_166\n      swap1\n        /* \"#utility.yul\":10843:10845   */\n      0x20\n        /* \"#utility.yul\":10825:10846   */\n      dup1\n      dup3\n      mstore\n        /* \"#utility.yul\":10882:10884   */\n      0x0f\n        /* \"#utility.yul\":10862:10880   */\n      swap1\n      dup3\n      add\n        /* \"#utility.yul\":10855:10885   */\n      mstore\n        /* \"#utility.yul\":10921:10938   */\n      0x436c61696d6564207061796d656e740000000000000000000000000000000000\n        /* \"#utility.yul\":10916:10918   */\n      0x40\n        /* \"#utility.yul\":10901:10919   */\n      dup3\n      add\n        /* \"#utility.yul\":10894:10939   */\n      mstore\n        /* \"#utility.yul\":10971:10973   */\n      0x60\n        /* \"#utility.yul\":10956:10974   */\n      add\n      swap1\n        /* \"#utility.yul\":10641:10980   */\n      jump\n        /* \"tender.sol\":5343:5378  done(msg.sender, \"Claimed payment\") */\n    tag_166:\n      mload(0x40)\n      dup1\n      swap2\n      sub\n      swap1\n      log2\n        /* \"tender.sol\":5179:5386  function recievePay() public onlyowner() {... */\n      jump\t// out\n        /* \"tender.sol\":323:341  string public data */\n    tag_83:\n      0x00\n      dup1\n      sload\n      tag_168\n      swap1\n      tag_149\n      jump\t// in\n    tag_168:\n      dup1\n      0x1f\n      add\n      0x20\n      dup1\n      swap2\n      div\n      mul\n      0x20\n      add\n      mload(0x40)\n      swap1\n      dup2\n      add\n      0x40\n      mstore\n      dup1\n      swap3\n      swap2\n      swap1\n      dup2\n      dup2\n      mstore\n      0x20\n      add\n      dup3\n      dup1\n      sload\n      tag_169\n      swap1\n      tag_149\n      jump\t// in\n    tag_169:\n      dup1\n      iszero\n      tag_170\n      jumpi\n      dup1\n      0x1f\n      lt\n      tag_171\n      jumpi\n      0x0100\n      dup1\n      dup4\n      sload\n      div\n      mul\n      dup4\n      mstore\n      swap2\n      0x20\n      add\n      swap2\n      jump(tag_170)\n    tag_171:\n      dup3\n      add\n      swap2\n      swap1\n      0x00\n      mstore\n      keccak256(0x00, 0x20)\n      swap1\n    tag_172:\n      dup2\n      sload\n      dup2\n      mstore\n      swap1\n      0x01\n      add\n      swap1\n      0x20\n      add\n      dup1\n      dup4\n      gt\n      tag_172\n      jumpi\n      dup3\n      swap1\n      sub\n      0x1f\n      and\n      dup3\n      add\n      swap2\n    tag_170:\n      pop\n      pop\n      pop\n      pop\n      pop\n      dup2\n      jump\t// out\n        /* \"tender.sol\":2434:2721  function CreateTender(string memory description, address payable creator) public virtual... */\n    tag_94:\n        /* \"tender.sol\":2548:2556  isActive */\n      sload(0x01)\n      shl(0xa0, 0x01)\n      swap1\n      div\n      0xff\n      and\n        /* \"tender.sol\":2547:2556  !isActive */\n      iszero\n        /* \"tender.sol\":2539:2581  require(!isActive, \"Auction still active\") */\n      tag_175\n      jumpi\n      mload(0x40)\n      shl(0xe5, 0x461bcd)\n      dup2\n      mstore\n        /* \"#utility.yul\":11187:11189   */\n      0x20\n        /* \"tender.sol\":2539:2581  require(!isActive, \"Auction still active\") */\n      0x04\n      dup3\n      add\n        /* \"#utility.yul\":11169:11190   */\n      mstore\n        /* \"#utility.yul\":11226:11228   */\n      0x14\n        /* \"#utility.yul\":11206:11224   */\n      0x24\n      dup3\n      add\n        /* \"#utility.yul\":11199:11229   */\n      mstore\n        /* \"#utility.yul\":11265:11287   */\n      0x41756374696f6e207374696c6c20616374697665000000000000000000000000\n        /* \"#utility.yul\":11245:11263   */\n      0x44\n      dup3\n      add\n        /* \"#utility.yul\":11238:11288   */\n      mstore\n        /* \"#utility.yul\":11305:11323   */\n      0x64\n      add\n        /* \"tender.sol\":2539:2581  require(!isActive, \"Auction still active\") */\n      tag_118\n        /* \"#utility.yul\":10985:11329   */\n      jump\n        /* \"tender.sol\":2539:2581  require(!isActive, \"Auction still active\") */\n    tag_175:\n        /* \"tender.sol\":2592:2599  manager */\n      0x01\n        /* \"tender.sol\":2592:2609  manager = creator */\n      dup1\n      sload\n      not(0xffffffffffffffffffffffffffffffffffffffff)\n      and\n      sub(shl(0xa0, 0x01), 0x01)\n      dup4\n      and\n      or\n      swap1\n      sstore\n      0x00\n        /* \"tender.sol\":2620:2638  data = description */\n      tag_178\n        /* \"tender.sol\":2627:2638  description */\n      dup4\n      dup3\n        /* \"tender.sol\":2620:2638  data = description */\n      tag_142\n      jump\t// in\n    tag_178:\n      pop\n        /* \"tender.sol\":2660:2664  true */\n      0x01\n        /* \"tender.sol\":2649:2664  isActive = true */\n      dup1\n      sload\n      0xffffffffffffffffffffff00ffffffffffffffffffffffffffffffffffffffff\n      dup2\n      and\n      shl(0xa0, 0x01)\n      or\n      swap1\n      swap2\n      sstore\n        /* \"tender.sol\":2680:2713  done(manager, \"Created a tender\") */\n      mload(0x40)\n      sub(shl(0xa0, 0x01), 0x01)\n        /* \"tender.sol\":2685:2692  manager */\n      swap1\n      swap2\n      and\n      swap1\n        /* \"tender.sol\":2680:2713  done(manager, \"Created a tender\") */\n      0xddb3e8e092f582b287e510e57287106c0231b91b97d25c5872442924378808e9\n      swap1\n      tag_179\n      swap1\n        /* \"#utility.yul\":11536:11538   */\n      0x20\n        /* \"#utility.yul\":11518:11539   */\n      dup1\n      dup3\n      mstore\n        /* \"#utility.yul\":11575:11577   */\n      0x10\n        /* \"#utility.yul\":11555:11573   */\n      swap1\n      dup3\n      add\n        /* \"#utility.yul\":11548:11578   */\n      mstore\n        /* \"#utility.yul\":11614:11632   */\n      0x4372656174656420612074656e64657200000000000000000000000000000000\n        /* \"#utility.yul\":11609:11611   */\n      0x40\n        /* \"#utility.yul\":11594:11612   */\n      dup3\n      add\n        /* \"#utility.yul\":11587:11633   */\n      mstore\n        /* \"#utility.yul\":11665:11667   */\n      0x60\n        /* \"#utility.yul\":11650:11668   */\n      add\n      swap1\n        /* \"#utility.yul\":11334:11674   */\n      jump\n        /* \"tender.sol\":2680:2713  done(manager, \"Created a tender\") */\n    tag_179:\n      mload(0x40)\n      dup1\n      swap2\n      sub\n      swap1\n      log2\n        /* \"tender.sol\":2434:2721  function CreateTender(string memory description, address payable creator) public virtual... */\n      pop\n      pop\n      jump\t// out\n        /* \"tender.sol\":1439:1468  hiddenBid[] public hiddenBids */\n    tag_98:\n      0x03\n      dup2\n      dup2\n      sload\n      dup2\n      lt\n      tag_181\n      jumpi\n      0x00\n      dup1\n      revert\n    tag_181:\n      swap1\n      0x00\n      mstore\n      keccak256(0x00, 0x20)\n      swap1\n      0x03\n      mul\n      add\n      0x00\n      swap2\n      pop\n      swap1\n      pop\n      dup1\n      0x00\n      add\n      sload\n      swap1\n      dup1\n      0x01\n      add\n      sload\n      swap1\n      dup1\n      0x02\n      add\n      dup1\n      sload\n      tag_183\n      swap1\n      tag_149\n      jump\t// in\n    tag_183:\n      dup1\n      0x1f\n      add\n      0x20\n      dup1\n      swap2\n      div\n      mul\n      0x20\n      add\n      mload(0x40)\n      swap1\n      dup2\n      add\n      0x40\n      mstore\n      dup1\n      swap3\n      swap2\n      swap1\n      dup2\n      dup2\n      mstore\n      0x20\n      add\n      dup3\n      dup1\n      sload\n      tag_184\n      swap1\n      tag_149\n      jump\t// in\n    tag_184:\n      dup1\n      iszero\n      tag_185\n      jumpi\n      dup1\n      0x1f\n      lt\n      tag_186\n      jumpi\n      0x0100\n      dup1\n      dup4\n      sload\n      div\n      mul\n      dup4\n      mstore\n      swap2\n      0x20\n      add\n      swap2\n      jump(tag_185)\n    tag_186:\n      dup3\n      add\n      swap2\n      swap1\n      0x00\n      mstore\n      keccak256(0x00, 0x20)\n      swap1\n    tag_187:\n      dup2\n      sload\n      dup2\n      mstore\n      swap1\n      0x01\n      add\n      swap1\n      0x20\n      add\n      dup1\n      dup4\n      gt\n      tag_187\n      jumpi\n      dup3\n      swap1\n      sub\n      0x1f\n      and\n      dup3\n      add\n      swap2\n    tag_185:\n      pop\n      pop\n      pop\n      pop\n      pop\n      swap1\n      pop\n      dup4\n      jump\t// out\n        /* \"tender.sol\":4341:4605  function finalizeBid(uint index) public onlyowner() {... */\n    tag_104:\n        /* \"tender.sol\":2144:2151  manager */\n      and(sub(shl(0xa0, 0x01), 0x01), sload(0x01))\n        /* \"tender.sol\":2132:2142  msg.sender */\n      caller\n        /* \"tender.sol\":2132:2151  msg.sender==manager */\n      eq\n        /* \"tender.sol\":2124:2168  require(msg.sender==manager,\"Access Denied\") */\n      tag_189\n      jumpi\n      mload(0x40)\n      shl(0xe5, 0x461bcd)\n      dup2\n      mstore\n        /* \"#utility.yul\":5510:5512   */\n      0x20\n        /* \"tender.sol\":2124:2168  require(msg.sender==manager,\"Access Denied\") */\n      0x04\n      dup3\n      add\n        /* \"#utility.yul\":5492:5513   */\n      mstore\n        /* \"#utility.yul\":5549:5551   */\n      0x0d\n        /* \"#utility.yul\":5529:5547   */\n      0x24\n      dup3\n      add\n        /* \"#utility.yul\":5522:5552   */\n      mstore\n      shl(0x9a, 0x1058d8d95cdcc811195b9a5959)\n        /* \"#utility.yul\":5568:5586   */\n      0x44\n      dup3\n      add\n        /* \"#utility.yul\":5561:5604   */\n      mstore\n        /* \"#utility.yul\":5621:5639   */\n      0x64\n      add\n        /* \"tender.sol\":2124:2168  require(msg.sender==manager,\"Access Denied\") */\n      tag_118\n        /* \"#utility.yul\":5308:5645   */\n      jump\n        /* \"tender.sol\":2124:2168  require(msg.sender==manager,\"Access Denied\") */\n    tag_189:\n        /* \"tender.sol\":4413:4421  complete */\n      sload(0x01)\n      shl(0xb0, 0x01)\n      swap1\n      div\n      0xff\n      and\n        /* \"tender.sol\":4412:4421  !complete */\n      iszero\n        /* \"tender.sol\":4404:4422  require(!complete) */\n      tag_192\n      jumpi\n      0x00\n      dup1\n      revert\n    tag_192:\n        /* \"tender.sol\":4442:4446  bids */\n      0x02\n        /* \"tender.sol\":4447:4452  index */\n      dup2\n        /* \"tender.sol\":4442:4453  bids[index] */\n      dup2\n      sload\n      dup2\n      lt\n      tag_194\n      jumpi\n      tag_194\n      tag_195\n      jump\t// in\n    tag_194:\n      0x00\n      swap2\n      dup3\n      mstore\n      0x20\n      swap1\n      swap2\n      keccak256\n      0x03\n      swap1\n      swap2\n      mul\n      add\n        /* \"tender.sol\":4433:4453  winner = bids[index] */\n      dup1\n      sload\n        /* \"tender.sol\":4433:4439  winner */\n      0x04\n        /* \"tender.sol\":4433:4453  winner = bids[index] */\n      dup1\n      sload\n      not(0xffffffffffffffffffffffffffffffffffffffff)\n      and\n      sub(shl(0xa0, 0x01), 0x01)\n      swap1\n      swap3\n      and\n      swap2\n      swap1\n      swap2\n      or\n      dup2\n      sstore\n      0x01\n      dup3\n      add\n      sload\n      0x05\n      sstore\n      0x06\n      tag_197\n      0x02\n      dup5\n      add\n      dup3\n      tag_198\n      jump\t// in\n    tag_197:\n      pop\n      pop\n      pop\n        /* \"tender.sol\":4464:4472  winIndex */\n      0x07\n        /* \"tender.sol\":4464:4480  winIndex = index */\n      dup2\n      swap1\n      sstore\n        /* \"tender.sol\":4504:4520  winner.bidAmount */\n      sload(0x05)\n        /* \"tender.sol\":4491:4501  bid_amount */\n      0x08\n        /* \"tender.sol\":4491:4520  bid_amount = winner.bidAmount */\n      sstore\n        /* \"tender.sol\":4504:4520  winner.bidAmount */\n      0x01\n        /* \"tender.sol\":4531:4546  awaiting = true */\n      dup1\n      sload\n      0xffffffffffffffffffff00ffffffffffffffffffffffffffffffffffffffffff\n      and\n      shl(0xa8, 0x01)\n      or\n      swap1\n      sstore\n        /* \"tender.sol\":4504:4510  winner */\n      0x04\n        /* \"tender.sol\":4567:4580  winner.bidder */\n      sload\n        /* \"tender.sol\":4562:4594  done(winner.bidder,\"Authorized\") */\n      mload(0x40)\n      sub(shl(0xa0, 0x01), 0x01)\n        /* \"tender.sol\":4567:4580  winner.bidder */\n      swap1\n      swap2\n      and\n      swap1\n        /* \"tender.sol\":4562:4594  done(winner.bidder,\"Authorized\") */\n      0xddb3e8e092f582b287e510e57287106c0231b91b97d25c5872442924378808e9\n      swap1\n      tag_133\n      swap1\n        /* \"#utility.yul\":13449:13451   */\n      0x20\n        /* \"#utility.yul\":13431:13452   */\n      dup1\n      dup3\n      mstore\n        /* \"#utility.yul\":13488:13490   */\n      0x0a\n        /* \"#utility.yul\":13468:13486   */\n      swap1\n      dup3\n      add\n        /* \"#utility.yul\":13461:13491   */\n      mstore\n        /* \"#utility.yul\":13527:13539   */\n      0x417574686f72697a656400000000000000000000000000000000000000000000\n        /* \"#utility.yul\":13522:13524   */\n      0x40\n        /* \"#utility.yul\":13507:13525   */\n      dup3\n      add\n        /* \"#utility.yul\":13500:13540   */\n      mstore\n        /* \"#utility.yul\":13572:13574   */\n      0x60\n        /* \"#utility.yul\":13557:13575   */\n      add\n      swap1\n        /* \"#utility.yul\":13247:13581   */\n      jump\n        /* \"tender.sol\":1475:1492  Bid public winner */\n    tag_107:\n      0x04\n      dup1\n      sload\n      sload(0x05)\n      0x06\n      dup1\n      sload\n      sub(shl(0xa0, 0x01), 0x01)\n      swap1\n      swap4\n      and\n      swap4\n      swap2\n      swap3\n      tag_183\n      swap1\n      tag_149\n      jump\t// in\n        /* \"tender.sol\":2912:3134  function getBidSummary(uint index) public view returns (address, uint, string memory) {... */\n    tag_113:\n        /* \"tender.sol\":2968:2975  address */\n      0x00\n        /* \"tender.sol\":2977:2981  uint */\n      dup1\n        /* \"tender.sol\":2983:2996  string memory */\n      0x60\n        /* \"tender.sol\":3031:3035  bids */\n      0x02\n        /* \"tender.sol\":3036:3041  index */\n      dup5\n        /* \"tender.sol\":3031:3042  bids[index] */\n      dup2\n      sload\n      dup2\n      lt\n      tag_208\n      jumpi\n      tag_208\n      tag_195\n      jump\t// in\n    tag_208:\n      0x00\n      swap2\n      dup3\n      mstore\n      0x20\n      swap1\n      swap2\n      keccak256\n      0x03\n      swap1\n      swap2\n      mul\n      add\n        /* \"tender.sol\":3031:3049  bids[index].bidder */\n      sload\n        /* \"tender.sol\":3064:3068  bids */\n      0x02\n        /* \"tender.sol\":3064:3075  bids[index] */\n      dup1\n      sload\n      sub(shl(0xa0, 0x01), 0x01)\n        /* \"tender.sol\":3031:3049  bids[index].bidder */\n      swap1\n      swap3\n      and\n      swap2\n        /* \"tender.sol\":3069:3074  index */\n      dup7\n      swap1\n        /* \"tender.sol\":3064:3075  bids[index] */\n      dup2\n      lt\n      tag_211\n      jumpi\n      tag_211\n      tag_195\n      jump\t// in\n    tag_211:\n      swap1\n      0x00\n      mstore\n      keccak256(0x00, 0x20)\n      swap1\n      0x03\n      mul\n      add\n        /* \"tender.sol\":3064:3085  bids[index].bidAmount */\n      0x01\n      add\n      sload\n        /* \"tender.sol\":3100:3104  bids */\n      0x02\n        /* \"tender.sol\":3105:3110  index */\n      dup7\n        /* \"tender.sol\":3100:3111  bids[index] */\n      dup2\n      sload\n      dup2\n      lt\n      tag_214\n      jumpi\n      tag_214\n      tag_195\n      jump\t// in\n    tag_214:\n      swap1\n      0x00\n      mstore\n      keccak256(0x00, 0x20)\n      swap1\n      0x03\n      mul\n      add\n        /* \"tender.sol\":3100:3115  bids[index].bid */\n      0x02\n      add\n        /* \"tender.sol\":3009:3126  return (... */\n      dup1\n      dup1\n      sload\n      tag_216\n      swap1\n      tag_149\n      jump\t// in\n    tag_216:\n      dup1\n      0x1f\n      add\n      0x20\n      dup1\n      swap2\n      div\n      mul\n      0x20\n      add\n      mload(0x40)\n      swap1\n      dup2\n      add\n      0x40\n      mstore\n      dup1\n      swap3\n      swap2\n      swap1\n      dup2\n      dup2\n      mstore\n      0x20\n      add\n      dup3\n      dup1\n      sload\n      tag_217\n      swap1\n      tag_149\n      jump\t// in\n    tag_217:\n      dup1\n      iszero\n      tag_218\n      jumpi\n      dup1\n      0x1f\n      lt\n      tag_219\n      jumpi\n      0x0100\n      dup1\n      dup4\n      sload\n      div\n      mul\n      dup4\n      mstore\n      swap2\n      0x20\n      add\n      swap2\n      jump(tag_218)\n    tag_219:\n      dup3\n      add\n      swap2\n      swap1\n      0x00\n      mstore\n      keccak256(0x00, 0x20)\n      swap1\n    tag_220:\n      dup2\n      sload\n      dup2\n      mstore\n      swap1\n      0x01\n      add\n      swap1\n      0x20\n      add\n      dup1\n      dup4\n      gt\n      tag_220\n      jumpi\n      dup3\n      swap1\n      sub\n      0x1f\n      and\n      dup3\n      add\n      swap2\n    tag_218:\n      pop\n      pop\n      pop\n      pop\n      pop\n      swap1\n      pop\n      swap3\n      pop\n      swap3\n      pop\n      swap3\n      pop\n        /* \"tender.sol\":2912:3134  function getBidSummary(uint index) public view returns (address, uint, string memory) {... */\n      swap2\n      swap4\n      swap1\n      swap3\n      pop\n      jump\t// out\n        /* \"#utility.yul\":388:592   */\n    tag_221:\n        /* \"#utility.yul\":464:484   */\n      dup1\n      calldataload\n      sub(shl(0xa0, 0x01), 0x01)\n        /* \"#utility.yul\":513:567   */\n      dup2\n      and\n        /* \"#utility.yul\":503:568   */\n      dup2\n      eq\n        /* \"#utility.yul\":493:586   */\n      tag_233\n      jumpi\n        /* \"#utility.yul\":582:583   */\n      0x00\n        /* \"#utility.yul\":579:580   */\n      dup1\n        /* \"#utility.yul\":572:584   */\n      revert\n        /* \"#utility.yul\":493:586   */\n    tag_233:\n        /* \"#utility.yul\":388:592   */\n      swap2\n      swap1\n      pop\n      jump\t// out\n        /* \"#utility.yul\":597:799   */\n    tag_40:\n        /* \"#utility.yul\":664:670   */\n      0x00\n        /* \"#utility.yul\":717:719   */\n      0x20\n        /* \"#utility.yul\":705:714   */\n      dup3\n        /* \"#utility.yul\":696:703   */\n      dup5\n        /* \"#utility.yul\":692:715   */\n      sub\n        /* \"#utility.yul\":688:720   */\n      slt\n        /* \"#utility.yul\":685:737   */\n      iszero\n      tag_235\n      jumpi\n        /* \"#utility.yul\":733:734   */\n      0x00\n        /* \"#utility.yul\":730:731   */\n      dup1\n        /* \"#utility.yul\":723:735   */\n      revert\n        /* \"#utility.yul\":685:737   */\n    tag_235:\n        /* \"#utility.yul\":756:793   */\n      tag_236\n        /* \"#utility.yul\":783:792   */\n      dup3\n        /* \"#utility.yul\":756:793   */\n      tag_221\n      jump\t// in\n    tag_236:\n        /* \"#utility.yul\":746:793   */\n      swap4\n        /* \"#utility.yul\":597:799   */\n      swap3\n      pop\n      pop\n      pop\n      jump\t// out\n        /* \"#utility.yul\":804:984   */\n    tag_44:\n        /* \"#utility.yul\":863:869   */\n      0x00\n        /* \"#utility.yul\":916:918   */\n      0x20\n        /* \"#utility.yul\":904:913   */\n      dup3\n        /* \"#utility.yul\":895:902   */\n      dup5\n        /* \"#utility.yul\":891:914   */\n      sub\n        /* \"#utility.yul\":887:919   */\n      slt\n        /* \"#utility.yul\":884:936   */\n      iszero\n      tag_238\n      jumpi\n        /* \"#utility.yul\":932:933   */\n      0x00\n        /* \"#utility.yul\":929:930   */\n      dup1\n        /* \"#utility.yul\":922:934   */\n      revert\n        /* \"#utility.yul\":884:936   */\n    tag_238:\n      pop\n        /* \"#utility.yul\":955:978   */\n      calldataload\n      swap2\n        /* \"#utility.yul\":804:984   */\n      swap1\n      pop\n      jump\t// out\n        /* \"#utility.yul\":989:1412   */\n    tag_222:\n        /* \"#utility.yul\":1031:1034   */\n      0x00\n        /* \"#utility.yul\":1069:1074   */\n      dup2\n        /* \"#utility.yul\":1063:1075   */\n      mload\n        /* \"#utility.yul\":1096:1102   */\n      dup1\n        /* \"#utility.yul\":1091:1094   */\n      dup5\n        /* \"#utility.yul\":1084:1103   */\n      mstore\n        /* \"#utility.yul\":1121:1122   */\n      0x00\n        /* \"#utility.yul\":1131:1293   */\n    tag_240:\n        /* \"#utility.yul\":1145:1151   */\n      dup2\n        /* \"#utility.yul\":1142:1143   */\n      dup2\n        /* \"#utility.yul\":1139:1152   */\n      lt\n        /* \"#utility.yul\":1131:1293   */\n      iszero\n      tag_242\n      jumpi\n        /* \"#utility.yul\":1207:1211   */\n      0x20\n        /* \"#utility.yul\":1263:1276   */\n      dup2\n      dup6\n      add\n        /* \"#utility.yul\":1259:1281   */\n      dup2\n      add\n        /* \"#utility.yul\":1253:1282   */\n      mload\n        /* \"#utility.yul\":1235:1246   */\n      dup7\n      dup4\n      add\n        /* \"#utility.yul\":1231:1251   */\n      dup3\n      add\n        /* \"#utility.yul\":1224:1283   */\n      mstore\n        /* \"#utility.yul\":1160:1172   */\n      add\n        /* \"#utility.yul\":1131:1293   */\n      jump(tag_240)\n    tag_242:\n        /* \"#utility.yul\":1135:1138   */\n      pop\n        /* \"#utility.yul\":1338:1339   */\n      0x00\n        /* \"#utility.yul\":1331:1335   */\n      0x20\n        /* \"#utility.yul\":1322:1328   */\n      dup3\n        /* \"#utility.yul\":1317:1320   */\n      dup7\n        /* \"#utility.yul\":1313:1329   */\n      add\n        /* \"#utility.yul\":1309:1336   */\n      add\n        /* \"#utility.yul\":1302:1340   */\n      mstore\n        /* \"#utility.yul\":1401:1405   */\n      0x20\n        /* \"#utility.yul\":1394:1396   */\n      0x1f\n        /* \"#utility.yul\":1390:1397   */\n      not\n        /* \"#utility.yul\":1385:1387   */\n      0x1f\n        /* \"#utility.yul\":1377:1383   */\n      dup4\n        /* \"#utility.yul\":1373:1388   */\n      add\n        /* \"#utility.yul\":1369:1398   */\n      and\n        /* \"#utility.yul\":1364:1367   */\n      dup6\n        /* \"#utility.yul\":1360:1399   */\n      add\n        /* \"#utility.yul\":1356:1406   */\n      add\n        /* \"#utility.yul\":1349:1406   */\n      swap2\n      pop\n      pop\n        /* \"#utility.yul\":989:1412   */\n      swap3\n      swap2\n      pop\n      pop\n      jump\t// out\n        /* \"#utility.yul\":1417:1964   */\n    tag_50:\n        /* \"#utility.yul\":1658:1661   */\n      0x80\n        /* \"#utility.yul\":1647:1656   */\n      dup2\n        /* \"#utility.yul\":1640:1662   */\n      mstore\n        /* \"#utility.yul\":1621:1625   */\n      0x00\n        /* \"#utility.yul\":1685:1731   */\n      tag_244\n        /* \"#utility.yul\":1726:1729   */\n      0x80\n        /* \"#utility.yul\":1715:1724   */\n      dup4\n        /* \"#utility.yul\":1711:1730   */\n      add\n        /* \"#utility.yul\":1703:1709   */\n      dup8\n        /* \"#utility.yul\":1685:1731   */\n      tag_222\n      jump\t// in\n    tag_244:\n        /* \"#utility.yul\":1781:1787   */\n      dup6\n        /* \"#utility.yul\":1774:1788   */\n      iszero\n        /* \"#utility.yul\":1767:1789   */\n      iszero\n        /* \"#utility.yul\":1762:1764   */\n      0x20\n        /* \"#utility.yul\":1751:1760   */\n      dup5\n        /* \"#utility.yul\":1747:1765   */\n      add\n        /* \"#utility.yul\":1740:1790   */\n      mstore\n        /* \"#utility.yul\":1838:1847   */\n      dup3\n        /* \"#utility.yul\":1830:1836   */\n      dup2\n        /* \"#utility.yul\":1826:1848   */\n      sub\n        /* \"#utility.yul\":1821:1823   */\n      0x40\n        /* \"#utility.yul\":1810:1819   */\n      dup5\n        /* \"#utility.yul\":1806:1824   */\n      add\n        /* \"#utility.yul\":1799:1849   */\n      mstore\n        /* \"#utility.yul\":1866:1899   */\n      tag_245\n        /* \"#utility.yul\":1892:1898   */\n      dup2\n        /* \"#utility.yul\":1884:1890   */\n      dup7\n        /* \"#utility.yul\":1866:1899   */\n      tag_222\n      jump\t// in\n    tag_245:\n        /* \"#utility.yul\":1858:1899   */\n      swap2\n      pop\n      pop\n        /* \"#utility.yul\":1949:1955   */\n      dup3\n        /* \"#utility.yul\":1942:1956   */\n      iszero\n        /* \"#utility.yul\":1935:1957   */\n      iszero\n        /* \"#utility.yul\":1930:1932   */\n      0x60\n        /* \"#utility.yul\":1919:1928   */\n      dup4\n        /* \"#utility.yul\":1915:1933   */\n      add\n        /* \"#utility.yul\":1908:1958   */\n      mstore\n        /* \"#utility.yul\":1417:1964   */\n      swap6\n      swap5\n      pop\n      pop\n      pop\n      pop\n      pop\n      jump\t// out\n        /* \"#utility.yul\":1969:2096   */\n    tag_223:\n        /* \"#utility.yul\":2030:2040   */\n      0x4e487b71\n        /* \"#utility.yul\":2025:2028   */\n      0xe0\n        /* \"#utility.yul\":2021:2041   */\n      shl\n        /* \"#utility.yul\":2018:2019   */\n      0x00\n        /* \"#utility.yul\":2011:2042   */\n      mstore\n        /* \"#utility.yul\":2061:2065   */\n      0x41\n        /* \"#utility.yul\":2058:2059   */\n      0x04\n        /* \"#utility.yul\":2051:2066   */\n      mstore\n        /* \"#utility.yul\":2085:2089   */\n      0x24\n        /* \"#utility.yul\":2082:2083   */\n      0x00\n        /* \"#utility.yul\":2075:2090   */\n      revert\n        /* \"#utility.yul\":2101:2820   */\n    tag_224:\n        /* \"#utility.yul\":2144:2149   */\n      0x00\n        /* \"#utility.yul\":2197:2200   */\n      dup3\n        /* \"#utility.yul\":2190:2194   */\n      0x1f\n        /* \"#utility.yul\":2182:2188   */\n      dup4\n        /* \"#utility.yul\":2178:2195   */\n      add\n        /* \"#utility.yul\":2174:2201   */\n      slt\n        /* \"#utility.yul\":2164:2219   */\n      tag_248\n      jumpi\n        /* \"#utility.yul\":2215:2216   */\n      0x00\n        /* \"#utility.yul\":2212:2213   */\n      dup1\n        /* \"#utility.yul\":2205:2217   */\n      revert\n        /* \"#utility.yul\":2164:2219   */\n    tag_248:\n        /* \"#utility.yul\":2251:2257   */\n      dup2\n        /* \"#utility.yul\":2238:2258   */\n      calldataload\n        /* \"#utility.yul\":2277:2295   */\n      0xffffffffffffffff\n        /* \"#utility.yul\":2314:2316   */\n      dup1\n        /* \"#utility.yul\":2310:2312   */\n      dup3\n        /* \"#utility.yul\":2307:2317   */\n      gt\n        /* \"#utility.yul\":2304:2340   */\n      iszero\n      tag_250\n      jumpi\n        /* \"#utility.yul\":2320:2338   */\n      tag_250\n      tag_223\n      jump\t// in\n    tag_250:\n        /* \"#utility.yul\":2395:2397   */\n      0x40\n        /* \"#utility.yul\":2389:2398   */\n      mload\n        /* \"#utility.yul\":2363:2365   */\n      0x1f\n        /* \"#utility.yul\":2449:2462   */\n      dup4\n      add\n      not(0x1f)\n        /* \"#utility.yul\":2445:2467   */\n      swap1\n      dup2\n      and\n        /* \"#utility.yul\":2469:2471   */\n      0x3f\n        /* \"#utility.yul\":2441:2472   */\n      add\n        /* \"#utility.yul\":2437:2477   */\n      and\n        /* \"#utility.yul\":2425:2478   */\n      dup2\n      add\n      swap1\n        /* \"#utility.yul\":2493:2511   */\n      dup3\n      dup3\n      gt\n        /* \"#utility.yul\":2513:2535   */\n      dup2\n      dup4\n      lt\n        /* \"#utility.yul\":2490:2536   */\n      or\n        /* \"#utility.yul\":2487:2559   */\n      iszero\n      tag_252\n      jumpi\n        /* \"#utility.yul\":2539:2557   */\n      tag_252\n      tag_223\n      jump\t// in\n    tag_252:\n        /* \"#utility.yul\":2579:2589   */\n      dup2\n        /* \"#utility.yul\":2575:2577   */\n      0x40\n        /* \"#utility.yul\":2568:2590   */\n      mstore\n        /* \"#utility.yul\":2614:2616   */\n      dup4\n        /* \"#utility.yul\":2606:2612   */\n      dup2\n        /* \"#utility.yul\":2599:2617   */\n      mstore\n        /* \"#utility.yul\":2660:2663   */\n      dup7\n        /* \"#utility.yul\":2653:2657   */\n      0x20\n        /* \"#utility.yul\":2648:2650   */\n      dup6\n        /* \"#utility.yul\":2640:2646   */\n      dup9\n        /* \"#utility.yul\":2636:2651   */\n      add\n        /* \"#utility.yul\":2632:2658   */\n      add\n        /* \"#utility.yul\":2629:2664   */\n      gt\n        /* \"#utility.yul\":2626:2681   */\n      iszero\n      tag_253\n      jumpi\n        /* \"#utility.yul\":2677:2678   */\n      0x00\n        /* \"#utility.yul\":2674:2675   */\n      dup1\n        /* \"#utility.yul\":2667:2679   */\n      revert\n        /* \"#utility.yul\":2626:2681   */\n    tag_253:\n        /* \"#utility.yul\":2741:2743   */\n      dup4\n        /* \"#utility.yul\":2734:2738   */\n      0x20\n        /* \"#utility.yul\":2726:2732   */\n      dup8\n        /* \"#utility.yul\":2722:2739   */\n      add\n        /* \"#utility.yul\":2715:2719   */\n      0x20\n        /* \"#utility.yul\":2707:2713   */\n      dup4\n        /* \"#utility.yul\":2703:2720   */\n      add\n        /* \"#utility.yul\":2690:2744   */\n      calldatacopy\n        /* \"#utility.yul\":2788:2789   */\n      0x00\n        /* \"#utility.yul\":2781:2785   */\n      0x20\n        /* \"#utility.yul\":2776:2778   */\n      dup6\n        /* \"#utility.yul\":2768:2774   */\n      dup4\n        /* \"#utility.yul\":2764:2779   */\n      add\n        /* \"#utility.yul\":2760:2786   */\n      add\n        /* \"#utility.yul\":2753:2790   */\n      mstore\n        /* \"#utility.yul\":2808:2814   */\n      dup1\n        /* \"#utility.yul\":2799:2814   */\n      swap5\n      pop\n      pop\n      pop\n      pop\n      pop\n        /* \"#utility.yul\":2101:2820   */\n      swap3\n      swap2\n      pop\n      pop\n      jump\t// out\n        /* \"#utility.yul\":2825:3215   */\n    tag_58:\n        /* \"#utility.yul\":2903:2909   */\n      0x00\n        /* \"#utility.yul\":2911:2917   */\n      dup1\n        /* \"#utility.yul\":2964:2966   */\n      0x40\n        /* \"#utility.yul\":2952:2961   */\n      dup4\n        /* \"#utility.yul\":2943:2950   */\n      dup6\n        /* \"#utility.yul\":2939:2962   */\n      sub\n        /* \"#utility.yul\":2935:2967   */\n      slt\n        /* \"#utility.yul\":2932:2984   */\n      iszero\n      tag_255\n      jumpi\n        /* \"#utility.yul\":2980:2981   */\n      0x00\n        /* \"#utility.yul\":2977:2978   */\n      dup1\n        /* \"#utility.yul\":2970:2982   */\n      revert\n        /* \"#utility.yul\":2932:2984   */\n    tag_255:\n        /* \"#utility.yul\":3016:3025   */\n      dup3\n        /* \"#utility.yul\":3003:3026   */\n      calldataload\n        /* \"#utility.yul\":2993:3026   */\n      swap2\n      pop\n        /* \"#utility.yul\":3077:3079   */\n      0x20\n        /* \"#utility.yul\":3066:3075   */\n      dup4\n        /* \"#utility.yul\":3062:3080   */\n      add\n        /* \"#utility.yul\":3049:3081   */\n      calldataload\n        /* \"#utility.yul\":3104:3122   */\n      0xffffffffffffffff\n        /* \"#utility.yul\":3096:3102   */\n      dup2\n        /* \"#utility.yul\":3093:3123   */\n      gt\n        /* \"#utility.yul\":3090:3140   */\n      iszero\n      tag_256\n      jumpi\n        /* \"#utility.yul\":3136:3137   */\n      0x00\n        /* \"#utility.yul\":3133:3134   */\n      dup1\n        /* \"#utility.yul\":3126:3138   */\n      revert\n        /* \"#utility.yul\":3090:3140   */\n    tag_256:\n        /* \"#utility.yul\":3159:3209   */\n      tag_257\n        /* \"#utility.yul\":3201:3208   */\n      dup6\n        /* \"#utility.yul\":3192:3198   */\n      dup3\n        /* \"#utility.yul\":3181:3190   */\n      dup7\n        /* \"#utility.yul\":3177:3199   */\n      add\n        /* \"#utility.yul\":3159:3209   */\n      tag_224\n      jump\t// in\n    tag_257:\n        /* \"#utility.yul\":3149:3209   */\n      swap2\n      pop\n      pop\n        /* \"#utility.yul\":2825:3215   */\n      swap3\n      pop\n      swap3\n      swap1\n      pop\n      jump\t// out\n        /* \"#utility.yul\":3220:3631   */\n    tag_64:\n      sub(shl(0xa0, 0x01), 0x01)\n        /* \"#utility.yul\":3429:3435   */\n      dup5\n        /* \"#utility.yul\":3425:3480   */\n      and\n        /* \"#utility.yul\":3414:3423   */\n      dup2\n        /* \"#utility.yul\":3407:3481   */\n      mstore\n        /* \"#utility.yul\":3517:3519   */\n      0x60\n        /* \"#utility.yul\":3512:3514   */\n      0x20\n        /* \"#utility.yul\":3501:3510   */\n      dup3\n        /* \"#utility.yul\":3497:3515   */\n      add\n        /* \"#utility.yul\":3490:3520   */\n      mstore\n        /* \"#utility.yul\":3388:3392   */\n      0x00\n        /* \"#utility.yul\":3537:3582   */\n      tag_259\n        /* \"#utility.yul\":3578:3580   */\n      0x60\n        /* \"#utility.yul\":3567:3576   */\n      dup4\n        /* \"#utility.yul\":3563:3581   */\n      add\n        /* \"#utility.yul\":3555:3561   */\n      dup6\n        /* \"#utility.yul\":3537:3582   */\n      tag_222\n      jump\t// in\n    tag_259:\n        /* \"#utility.yul\":3529:3582   */\n      swap1\n      pop\n        /* \"#utility.yul\":3618:3624   */\n      dup3\n        /* \"#utility.yul\":3613:3615   */\n      0x40\n        /* \"#utility.yul\":3602:3611   */\n      dup4\n        /* \"#utility.yul\":3598:3616   */\n      add\n        /* \"#utility.yul\":3591:3625   */\n      mstore\n        /* \"#utility.yul\":3220:3631   */\n      swap5\n      swap4\n      pop\n      pop\n      pop\n      pop\n      jump\t// out\n        /* \"#utility.yul\":3883:4103   */\n    tag_85:\n        /* \"#utility.yul\":4032:4034   */\n      0x20\n        /* \"#utility.yul\":4021:4030   */\n      dup2\n        /* \"#utility.yul\":4014:4035   */\n      mstore\n        /* \"#utility.yul\":3995:3999   */\n      0x00\n        /* \"#utility.yul\":4052:4097   */\n      tag_236\n        /* \"#utility.yul\":4093:4095   */\n      0x20\n        /* \"#utility.yul\":4082:4091   */\n      dup4\n        /* \"#utility.yul\":4078:4096   */\n      add\n        /* \"#utility.yul\":4070:4076   */\n      dup5\n        /* \"#utility.yul\":4052:4097   */\n      tag_222\n      jump\t// in\n        /* \"#utility.yul\":4108:4520   */\n    tag_93:\n        /* \"#utility.yul\":4194:4200   */\n      0x00\n        /* \"#utility.yul\":4202:4208   */\n      dup1\n        /* \"#utility.yul\":4255:4257   */\n      0x40\n        /* \"#utility.yul\":4243:4252   */\n      dup4\n        /* \"#utility.yul\":4234:4241   */\n      dup6\n        /* \"#utility.yul\":4230:4253   */\n      sub\n        /* \"#utility.yul\":4226:4258   */\n      slt\n        /* \"#utility.yul\":4223:4275   */\n      iszero\n      tag_264\n      jumpi\n        /* \"#utility.yul\":4271:4272   */\n      0x00\n        /* \"#utility.yul\":4268:4269   */\n      dup1\n        /* \"#utility.yul\":4261:4273   */\n      revert\n        /* \"#utility.yul\":4223:4275   */\n    tag_264:\n        /* \"#utility.yul\":4311:4320   */\n      dup3\n        /* \"#utility.yul\":4298:4321   */\n      calldataload\n        /* \"#utility.yul\":4344:4362   */\n      0xffffffffffffffff\n        /* \"#utility.yul\":4336:4342   */\n      dup2\n        /* \"#utility.yul\":4333:4363   */\n      gt\n        /* \"#utility.yul\":4330:4380   */\n      iszero\n      tag_265\n      jumpi\n        /* \"#utility.yul\":4376:4377   */\n      0x00\n        /* \"#utility.yul\":4373:4374   */\n      dup1\n        /* \"#utility.yul\":4366:4378   */\n      revert\n        /* \"#utility.yul\":4330:4380   */\n    tag_265:\n        /* \"#utility.yul\":4399:4449   */\n      tag_266\n        /* \"#utility.yul\":4441:4448   */\n      dup6\n        /* \"#utility.yul\":4432:4438   */\n      dup3\n        /* \"#utility.yul\":4421:4430   */\n      dup7\n        /* \"#utility.yul\":4417:4439   */\n      add\n        /* \"#utility.yul\":4399:4449   */\n      tag_224\n      jump\t// in\n    tag_266:\n        /* \"#utility.yul\":4389:4449   */\n      swap3\n      pop\n      pop\n        /* \"#utility.yul\":4468:4514   */\n      tag_267\n        /* \"#utility.yul\":4510:4512   */\n      0x20\n        /* \"#utility.yul\":4499:4508   */\n      dup5\n        /* \"#utility.yul\":4495:4513   */\n      add\n        /* \"#utility.yul\":4468:4514   */\n      tag_221\n      jump\t// in\n    tag_267:\n        /* \"#utility.yul\":4458:4514   */\n      swap1\n      pop\n        /* \"#utility.yul\":4108:4520   */\n      swap3\n      pop\n      swap3\n      swap1\n      pop\n      jump\t// out\n        /* \"#utility.yul\":4525:4887   */\n    tag_100:\n        /* \"#utility.yul\":4730:4736   */\n      dup4\n        /* \"#utility.yul\":4719:4728   */\n      dup2\n        /* \"#utility.yul\":4712:4737   */\n      mstore\n        /* \"#utility.yul\":4773:4779   */\n      dup3\n        /* \"#utility.yul\":4768:4770   */\n      0x20\n        /* \"#utility.yul\":4757:4766   */\n      dup3\n        /* \"#utility.yul\":4753:4771   */\n      add\n        /* \"#utility.yul\":4746:4780   */\n      mstore\n        /* \"#utility.yul\":4816:4818   */\n      0x60\n        /* \"#utility.yul\":4811:4813   */\n      0x40\n        /* \"#utility.yul\":4800:4809   */\n      dup3\n        /* \"#utility.yul\":4796:4814   */\n      add\n        /* \"#utility.yul\":4789:4819   */\n      mstore\n        /* \"#utility.yul\":4693:4697   */\n      0x00\n        /* \"#utility.yul\":4836:4881   */\n      tag_269\n        /* \"#utility.yul\":4877:4879   */\n      0x60\n        /* \"#utility.yul\":4866:4875   */\n      dup4\n        /* \"#utility.yul\":4862:4880   */\n      add\n        /* \"#utility.yul\":4854:4860   */\n      dup5\n        /* \"#utility.yul\":4836:4881   */\n      tag_222\n      jump\t// in\n    tag_269:\n        /* \"#utility.yul\":4828:4881   */\n      swap6\n        /* \"#utility.yul\":4525:4887   */\n      swap5\n      pop\n      pop\n      pop\n      pop\n      pop\n      jump\t// out\n        /* \"#utility.yul\":4892:5303   */\n    tag_109:\n      sub(shl(0xa0, 0x01), 0x01)\n        /* \"#utility.yul\":5101:5107   */\n      dup5\n        /* \"#utility.yul\":5097:5152   */\n      and\n        /* \"#utility.yul\":5086:5095   */\n      dup2\n        /* \"#utility.yul\":5079:5153   */\n      mstore\n        /* \"#utility.yul\":5189:5195   */\n      dup3\n        /* \"#utility.yul\":5184:5186   */\n      0x20\n        /* \"#utility.yul\":5173:5182   */\n      dup3\n        /* \"#utility.yul\":5169:5187   */\n      add\n        /* \"#utility.yul\":5162:5196   */\n      mstore\n        /* \"#utility.yul\":5232:5234   */\n      0x60\n        /* \"#utility.yul\":5227:5229   */\n      0x40\n        /* \"#utility.yul\":5216:5225   */\n      dup3\n        /* \"#utility.yul\":5212:5230   */\n      add\n        /* \"#utility.yul\":5205:5235   */\n      mstore\n        /* \"#utility.yul\":5060:5064   */\n      0x00\n        /* \"#utility.yul\":5252:5297   */\n      tag_269\n        /* \"#utility.yul\":5293:5295   */\n      0x60\n        /* \"#utility.yul\":5282:5291   */\n      dup4\n        /* \"#utility.yul\":5278:5296   */\n      add\n        /* \"#utility.yul\":5270:5276   */\n      dup5\n        /* \"#utility.yul\":5252:5297   */\n      tag_222\n      jump\t// in\n        /* \"#utility.yul\":7046:7426   */\n    tag_149:\n        /* \"#utility.yul\":7125:7126   */\n      0x01\n        /* \"#utility.yul\":7121:7133   */\n      dup2\n      dup2\n      shr\n      swap1\n        /* \"#utility.yul\":7168:7180   */\n      dup3\n      and\n      dup1\n        /* \"#utility.yul\":7189:7250   */\n      tag_278\n      jumpi\n        /* \"#utility.yul\":7243:7247   */\n      0x7f\n        /* \"#utility.yul\":7235:7241   */\n      dup3\n        /* \"#utility.yul\":7231:7248   */\n      and\n        /* \"#utility.yul\":7221:7248   */\n      swap2\n      pop\n        /* \"#utility.yul\":7189:7250   */\n    tag_278:\n        /* \"#utility.yul\":7296:7298   */\n      0x20\n        /* \"#utility.yul\":7288:7294   */\n      dup3\n        /* \"#utility.yul\":7285:7299   */\n      lt\n        /* \"#utility.yul\":7265:7283   */\n      dup2\n        /* \"#utility.yul\":7262:7300   */\n      sub\n        /* \"#utility.yul\":7259:7420   */\n      tag_279\n      jumpi\n        /* \"#utility.yul\":7342:7352   */\n      0x4e487b71\n        /* \"#utility.yul\":7337:7340   */\n      0xe0\n        /* \"#utility.yul\":7333:7353   */\n      shl\n        /* \"#utility.yul\":7330:7331   */\n      0x00\n        /* \"#utility.yul\":7323:7354   */\n      mstore\n        /* \"#utility.yul\":7377:7381   */\n      0x22\n        /* \"#utility.yul\":7374:7375   */\n      0x04\n        /* \"#utility.yul\":7367:7382   */\n      mstore\n        /* \"#utility.yul\":7405:7409   */\n      0x24\n        /* \"#utility.yul\":7402:7403   */\n      0x00\n        /* \"#utility.yul\":7395:7410   */\n      revert\n        /* \"#utility.yul\":7259:7420   */\n    tag_279:\n      pop\n        /* \"#utility.yul\":7046:7426   */\n      swap2\n      swap1\n      pop\n      jump\t// out\n        /* \"#utility.yul\":7557:8102   */\n    tag_226:\n        /* \"#utility.yul\":7659:7661   */\n      0x1f\n        /* \"#utility.yul\":7654:7657   */\n      dup3\n        /* \"#utility.yul\":7651:7662   */\n      gt\n        /* \"#utility.yul\":7648:8096   */\n      iszero\n      tag_282\n      jumpi\n        /* \"#utility.yul\":7695:7696   */\n      0x00\n        /* \"#utility.yul\":7720:7725   */\n      dup2\n        /* \"#utility.yul\":7716:7718   */\n      dup2\n        /* \"#utility.yul\":7709:7726   */\n      mstore\n        /* \"#utility.yul\":7765:7769   */\n      0x20\n        /* \"#utility.yul\":7761:7763   */\n      dup2\n        /* \"#utility.yul\":7751:7770   */\n      keccak256\n        /* \"#utility.yul\":7835:7837   */\n      0x1f\n        /* \"#utility.yul\":7823:7833   */\n      dup6\n        /* \"#utility.yul\":7819:7838   */\n      add\n        /* \"#utility.yul\":7816:7817   */\n      0x05\n        /* \"#utility.yul\":7812:7839   */\n      shr\n        /* \"#utility.yul\":7806:7810   */\n      dup2\n        /* \"#utility.yul\":7802:7840   */\n      add\n        /* \"#utility.yul\":7871:7875   */\n      0x20\n        /* \"#utility.yul\":7859:7869   */\n      dup7\n        /* \"#utility.yul\":7856:7876   */\n      lt\n        /* \"#utility.yul\":7853:7900   */\n      iszero\n      tag_283\n      jumpi\n      pop\n        /* \"#utility.yul\":7894:7898   */\n      dup1\n        /* \"#utility.yul\":7853:7900   */\n    tag_283:\n        /* \"#utility.yul\":7949:7951   */\n      0x1f\n        /* \"#utility.yul\":7944:7947   */\n      dup6\n        /* \"#utility.yul\":7940:7952   */\n      add\n        /* \"#utility.yul\":7937:7938   */\n      0x05\n        /* \"#utility.yul\":7933:7953   */\n      shr\n        /* \"#utility.yul\":7927:7931   */\n      dup3\n        /* \"#utility.yul\":7923:7954   */\n      add\n        /* \"#utility.yul\":7913:7954   */\n      swap2\n      pop\n        /* \"#utility.yul\":8004:8086   */\n    tag_284:\n        /* \"#utility.yul\":8022:8024   */\n      dup2\n        /* \"#utility.yul\":8015:8020   */\n      dup2\n        /* \"#utility.yul\":8012:8025   */\n      lt\n        /* \"#utility.yul\":8004:8086   */\n      iszero\n      tag_286\n      jumpi\n        /* \"#utility.yul\":8067:8084   */\n      dup3\n      dup2\n      sstore\n        /* \"#utility.yul\":8048:8049   */\n      0x01\n        /* \"#utility.yul\":8037:8050   */\n      add\n        /* \"#utility.yul\":8004:8086   */\n      jump(tag_284)\n    tag_286:\n        /* \"#utility.yul\":8008:8011   */\n      pop\n      pop\n      pop\n        /* \"#utility.yul\":7648:8096   */\n    tag_282:\n        /* \"#utility.yul\":7557:8102   */\n      pop\n      pop\n      pop\n      jump\t// out\n        /* \"#utility.yul\":8278:9630   */\n    tag_142:\n        /* \"#utility.yul\":8404:8407   */\n      dup2\n        /* \"#utility.yul\":8398:8408   */\n      mload\n        /* \"#utility.yul\":8431:8449   */\n      0xffffffffffffffff\n        /* \"#utility.yul\":8423:8429   */\n      dup2\n        /* \"#utility.yul\":8420:8450   */\n      gt\n        /* \"#utility.yul\":8417:8473   */\n      iszero\n      tag_290\n      jumpi\n        /* \"#utility.yul\":8453:8471   */\n      tag_290\n      tag_223\n      jump\t// in\n    tag_290:\n        /* \"#utility.yul\":8482:8579   */\n      tag_291\n        /* \"#utility.yul\":8572:8578   */\n      dup2\n        /* \"#utility.yul\":8532:8570   */\n      tag_292\n        /* \"#utility.yul\":8564:8568   */\n      dup5\n        /* \"#utility.yul\":8558:8569   */\n      sload\n        /* \"#utility.yul\":8532:8570   */\n      tag_149\n      jump\t// in\n    tag_292:\n        /* \"#utility.yul\":8526:8530   */\n      dup5\n        /* \"#utility.yul\":8482:8579   */\n      tag_226\n      jump\t// in\n    tag_291:\n        /* \"#utility.yul\":8634:8638   */\n      0x20\n      dup1\n        /* \"#utility.yul\":8698:8700   */\n      0x1f\n        /* \"#utility.yul\":8687:8701   */\n      dup4\n      gt\n        /* \"#utility.yul\":8715:8716   */\n      0x01\n        /* \"#utility.yul\":8710:9373   */\n      dup2\n      eq\n      tag_294\n      jumpi\n        /* \"#utility.yul\":9417:9418   */\n      0x00\n        /* \"#utility.yul\":9434:9440   */\n      dup5\n        /* \"#utility.yul\":9431:9520   */\n      iszero\n      tag_295\n      jumpi\n      pop\n        /* \"#utility.yul\":9486:9505   */\n      dup6\n      dup4\n      add\n        /* \"#utility.yul\":9480:9506   */\n      mload\n        /* \"#utility.yul\":9431:9520   */\n    tag_295:\n      not(0x00)\n        /* \"#utility.yul\":8235:8236   */\n      0x03\n        /* \"#utility.yul\":8231:8242   */\n      dup7\n      swap1\n      shl\n        /* \"#utility.yul\":8227:8251   */\n      shr\n        /* \"#utility.yul\":8223:8252   */\n      not\n        /* \"#utility.yul\":8213:8253   */\n      and\n        /* \"#utility.yul\":8259:8260   */\n      0x01\n        /* \"#utility.yul\":8255:8266   */\n      dup6\n      swap1\n      shl\n        /* \"#utility.yul\":8210:8267   */\n      or\n        /* \"#utility.yul\":9533:9614   */\n      dup6\n      sstore\n        /* \"#utility.yul\":8680:9624   */\n      jump(tag_286)\n        /* \"#utility.yul\":8710:9373   */\n    tag_294:\n        /* \"#utility.yul\":7504:7505   */\n      0x00\n        /* \"#utility.yul\":7497:7511   */\n      dup6\n      dup2\n      mstore\n        /* \"#utility.yul\":7541:7545   */\n      0x20\n        /* \"#utility.yul\":7528:7546   */\n      dup2\n      keccak256\n      not(0x1f)\n        /* \"#utility.yul\":8746:8766   */\n      dup7\n      and\n      swap2\n        /* \"#utility.yul\":8864:9100   */\n    tag_298:\n        /* \"#utility.yul\":8878:8885   */\n      dup3\n        /* \"#utility.yul\":8875:8876   */\n      dup2\n        /* \"#utility.yul\":8872:8886   */\n      lt\n        /* \"#utility.yul\":8864:9100   */\n      iszero\n      tag_300\n      jumpi\n        /* \"#utility.yul\":8967:8986   */\n      dup9\n      dup7\n      add\n        /* \"#utility.yul\":8961:8987   */\n      mload\n        /* \"#utility.yul\":8946:8988   */\n      dup3\n      sstore\n        /* \"#utility.yul\":9059:9086   */\n      swap5\n      dup5\n      add\n      swap5\n        /* \"#utility.yul\":9027:9028   */\n      0x01\n        /* \"#utility.yul\":9015:9029   */\n      swap1\n      swap2\n      add\n      swap1\n        /* \"#utility.yul\":8894:8913   */\n      dup5\n      add\n        /* \"#utility.yul\":8864:9100   */\n      jump(tag_298)\n    tag_300:\n        /* \"#utility.yul\":8868:8871   */\n      pop\n        /* \"#utility.yul\":9128:9134   */\n      dup6\n        /* \"#utility.yul\":9119:9126   */\n      dup3\n        /* \"#utility.yul\":9116:9135   */\n      lt\n        /* \"#utility.yul\":9113:9314   */\n      iszero\n      tag_301\n      jumpi\n        /* \"#utility.yul\":9189:9208   */\n      dup8\n      dup6\n      add\n        /* \"#utility.yul\":9183:9209   */\n      mload\n      not(0x00)\n        /* \"#utility.yul\":9272:9273   */\n      0x03\n        /* \"#utility.yul\":9268:9282   */\n      dup9\n      swap1\n      shl\n        /* \"#utility.yul\":9284:9287   */\n      0xf8\n        /* \"#utility.yul\":9264:9288   */\n      and\n        /* \"#utility.yul\":9260:9297   */\n      shr\n        /* \"#utility.yul\":9256:9298   */\n      not\n        /* \"#utility.yul\":9241:9299   */\n      and\n        /* \"#utility.yul\":9226:9300   */\n      dup2\n      sstore\n        /* \"#utility.yul\":9113:9314   */\n    tag_301:\n      pop\n      pop\n      pop\n      pop\n      pop\n        /* \"#utility.yul\":9360:9361   */\n      0x01\n        /* \"#utility.yul\":9344:9358   */\n      swap1\n      dup2\n      shl\n        /* \"#utility.yul\":9340:9362   */\n      add\n        /* \"#utility.yul\":9327:9363   */\n      swap1\n      sstore\n      pop\n        /* \"#utility.yul\":8278:9630   */\n      jump\t// out\n        /* \"#utility.yul\":9981:10108   */\n    tag_228:\n        /* \"#utility.yul\":10042:10052   */\n      0x4e487b71\n        /* \"#utility.yul\":10037:10040   */\n      0xe0\n        /* \"#utility.yul\":10033:10053   */\n      shl\n        /* \"#utility.yul\":10030:10031   */\n      0x00\n        /* \"#utility.yul\":10023:10054   */\n      mstore\n        /* \"#utility.yul\":10073:10077   */\n      0x11\n        /* \"#utility.yul\":10070:10071   */\n      0x04\n        /* \"#utility.yul\":10063:10078   */\n      mstore\n        /* \"#utility.yul\":10097:10101   */\n      0x24\n        /* \"#utility.yul\":10094:10095   */\n      0x00\n        /* \"#utility.yul\":10087:10102   */\n      revert\n        /* \"#utility.yul\":10113:10281   */\n    tag_159:\n        /* \"#utility.yul\":10186:10195   */\n      dup1\n      dup3\n      mul\n        /* \"#utility.yul\":10217:10226   */\n      dup2\n      iszero\n        /* \"#utility.yul\":10234:10249   */\n      dup3\n      dup3\n      div\n        /* \"#utility.yul\":10228:10250   */\n      dup5\n      eq\n        /* \"#utility.yul\":10214:10251   */\n      or\n        /* \"#utility.yul\":10204:10275   */\n      tag_306\n      jumpi\n        /* \"#utility.yul\":10255:10273   */\n      tag_306\n      tag_228\n      jump\t// in\n    tag_306:\n        /* \"#utility.yul\":10113:10281   */\n      swap3\n      swap2\n      pop\n      pop\n      jump\t// out\n        /* \"#utility.yul\":10286:10503   */\n    tag_161:\n        /* \"#utility.yul\":10326:10327   */\n      0x00\n        /* \"#utility.yul\":10352:10353   */\n      dup3\n        /* \"#utility.yul\":10342:10474   */\n      tag_308\n      jumpi\n        /* \"#utility.yul\":10396:10406   */\n      0x4e487b71\n        /* \"#utility.yul\":10391:10394   */\n      0xe0\n        /* \"#utility.yul\":10387:10407   */\n      shl\n        /* \"#utility.yul\":10384:10385   */\n      0x00\n        /* \"#utility.yul\":10377:10408   */\n      mstore\n        /* \"#utility.yul\":10431:10435   */\n      0x12\n        /* \"#utility.yul\":10428:10429   */\n      0x04\n        /* \"#utility.yul\":10421:10436   */\n      mstore\n        /* \"#utility.yul\":10459:10463   */\n      0x24\n        /* \"#utility.yul\":10456:10457   */\n      0x00\n        /* \"#utility.yul\":10449:10464   */\n      revert\n        /* \"#utility.yul\":10342:10474   */\n    tag_308:\n      pop\n        /* \"#utility.yul\":10488:10497   */\n      div\n      swap1\n        /* \"#utility.yul\":10286:10503   */\n      jump\t// out\n        /* \"#utility.yul\":10508:10636   */\n    tag_163:\n        /* \"#utility.yul\":10575:10584   */\n      dup2\n      dup2\n      sub\n        /* \"#utility.yul\":10596:10607   */\n      dup2\n      dup2\n      gt\n        /* \"#utility.yul\":10593:10630   */\n      iszero\n      tag_306\n      jumpi\n        /* \"#utility.yul\":10610:10628   */\n      tag_306\n      tag_228\n      jump\t// in\n        /* \"#utility.yul\":11679:11806   */\n    tag_195:\n        /* \"#utility.yul\":11740:11750   */\n      0x4e487b71\n        /* \"#utility.yul\":11735:11738   */\n      0xe0\n        /* \"#utility.yul\":11731:11751   */\n      shl\n        /* \"#utility.yul\":11728:11729   */\n      0x00\n        /* \"#utility.yul\":11721:11752   */\n      mstore\n        /* \"#utility.yul\":11771:11775   */\n      0x32\n        /* \"#utility.yul\":11768:11769   */\n      0x04\n        /* \"#utility.yul\":11761:11776   */\n      mstore\n        /* \"#utility.yul\":11795:11799   */\n      0x24\n        /* \"#utility.yul\":11792:11793   */\n      0x00\n        /* \"#utility.yul\":11785:11800   */\n      revert\n        /* \"#utility.yul\":11811:13242   */\n    tag_198:\n        /* \"#utility.yul\":11926:11929   */\n      dup2\n        /* \"#utility.yul\":11920:11924   */\n      dup2\n        /* \"#utility.yul\":11917:11930   */\n      sub\n        /* \"#utility.yul\":11914:11940   */\n      tag_317\n      jumpi\n        /* \"#utility.yul\":11933:11938   */\n      pop\n      pop\n        /* \"#utility.yul\":11811:13242   */\n      jump\t// out\n        /* \"#utility.yul\":11914:11940   */\n    tag_317:\n        /* \"#utility.yul\":11963:12000   */\n      tag_318\n        /* \"#utility.yul\":11995:11998   */\n      dup3\n        /* \"#utility.yul\":11989:11999   */\n      sload\n        /* \"#utility.yul\":11963:12000   */\n      tag_149\n      jump\t// in\n    tag_318:\n        /* \"#utility.yul\":12023:12041   */\n      0xffffffffffffffff\n        /* \"#utility.yul\":12015:12021   */\n      dup2\n        /* \"#utility.yul\":12012:12042   */\n      gt\n        /* \"#utility.yul\":12009:12065   */\n      iszero\n      tag_320\n      jumpi\n        /* \"#utility.yul\":12045:12063   */\n      tag_320\n      tag_223\n      jump\t// in\n    tag_320:\n        /* \"#utility.yul\":12074:12171   */\n      tag_321\n        /* \"#utility.yul\":12164:12170   */\n      dup2\n        /* \"#utility.yul\":12124:12162   */\n      tag_292\n        /* \"#utility.yul\":12156:12160   */\n      dup5\n        /* \"#utility.yul\":12150:12161   */\n      sload\n        /* \"#utility.yul\":12124:12162   */\n      tag_149\n      jump\t// in\n        /* \"#utility.yul\":12074:12171   */\n    tag_321:\n        /* \"#utility.yul\":12197:12198   */\n      0x00\n        /* \"#utility.yul\":12225:12227   */\n      0x1f\n        /* \"#utility.yul\":12217:12223   */\n      dup3\n        /* \"#utility.yul\":12214:12228   */\n      gt\n        /* \"#utility.yul\":12242:12243   */\n      0x01\n        /* \"#utility.yul\":12237:12985   */\n      dup2\n      eq\n      tag_324\n      jumpi\n        /* \"#utility.yul\":13029:13030   */\n      0x00\n        /* \"#utility.yul\":13046:13052   */\n      dup4\n        /* \"#utility.yul\":13043:13132   */\n      iszero\n      tag_325\n      jumpi\n      pop\n        /* \"#utility.yul\":13098:13117   */\n      dup5\n      dup3\n      add\n        /* \"#utility.yul\":13092:13118   */\n      sload\n        /* \"#utility.yul\":13043:13132   */\n    tag_325:\n      not(0x00)\n        /* \"#utility.yul\":8235:8236   */\n      0x03\n        /* \"#utility.yul\":8231:8242   */\n      dup6\n      swap1\n      shl\n        /* \"#utility.yul\":8227:8251   */\n      shr\n        /* \"#utility.yul\":8223:8252   */\n      not\n        /* \"#utility.yul\":8213:8253   */\n      and\n        /* \"#utility.yul\":8259:8260   */\n      0x01\n        /* \"#utility.yul\":8255:8266   */\n      dup5\n      swap1\n      shl\n        /* \"#utility.yul\":8210:8267   */\n      or\n        /* \"#utility.yul\":13145:13226   */\n      dup5\n      sstore\n        /* \"#utility.yul\":12207:13236   */\n      jump(tag_323)\n        /* \"#utility.yul\":12237:12985   */\n    tag_324:\n        /* \"#utility.yul\":7504:7505   */\n      0x00\n        /* \"#utility.yul\":7497:7511   */\n      dup6\n      dup2\n      mstore\n        /* \"#utility.yul\":7541:7545   */\n      0x20\n        /* \"#utility.yul\":7528:7546   */\n      swap1\n      keccak256\n      not(0x1f)\n        /* \"#utility.yul\":12273:12293   */\n      dup5\n      and\n      swap1\n        /* \"#utility.yul\":7504:7505   */\n      0x00\n        /* \"#utility.yul\":7497:7511   */\n      dup7\n      dup2\n      mstore\n        /* \"#utility.yul\":7541:7545   */\n      0x20\n        /* \"#utility.yul\":7528:7546   */\n      swap1\n      keccak256\n        /* \"#utility.yul\":12437:12446   */\n      dup5\n        /* \"#utility.yul\":12459:12710   */\n    tag_329:\n        /* \"#utility.yul\":12473:12480   */\n      dup4\n        /* \"#utility.yul\":12470:12471   */\n      dup2\n        /* \"#utility.yul\":12467:12481   */\n      lt\n        /* \"#utility.yul\":12459:12710   */\n      iszero\n      tag_331\n      jumpi\n        /* \"#utility.yul\":12555:12576   */\n      dup3\n      dup7\n      add\n        /* \"#utility.yul\":12549:12577   */\n      sload\n        /* \"#utility.yul\":12534:12578   */\n      dup3\n      sstore\n        /* \"#utility.yul\":12605:12606   */\n      0x01\n        /* \"#utility.yul\":12678:12696   */\n      swap6\n      dup7\n      add\n      swap6\n        /* \"#utility.yul\":12633:12648   */\n      swap1\n      swap2\n      add\n      swap1\n        /* \"#utility.yul\":12496:12500   */\n      0x20\n        /* \"#utility.yul\":12489:12501   */\n      add\n        /* \"#utility.yul\":12459:12710   */\n      jump(tag_329)\n    tag_331:\n        /* \"#utility.yul\":12463:12466   */\n      pop\n        /* \"#utility.yul\":12738:12744   */\n      dup6\n        /* \"#utility.yul\":12729:12736   */\n      dup4\n        /* \"#utility.yul\":12726:12745   */\n      lt\n        /* \"#utility.yul\":12723:12926   */\n      iszero\n      tag_332\n      jumpi\n        /* \"#utility.yul\":12799:12820   */\n      dup2\n      dup6\n      add\n        /* \"#utility.yul\":12793:12821   */\n      sload\n      not(0x00)\n        /* \"#utility.yul\":12884:12885   */\n      0x03\n        /* \"#utility.yul\":12880:12894   */\n      dup9\n      swap1\n      shl\n        /* \"#utility.yul\":12896:12899   */\n      0xf8\n        /* \"#utility.yul\":12876:12900   */\n      and\n        /* \"#utility.yul\":12872:12909   */\n      shr\n        /* \"#utility.yul\":12868:12910   */\n      not\n        /* \"#utility.yul\":12853:12911   */\n      and\n        /* \"#utility.yul\":12838:12912   */\n      dup2\n      sstore\n        /* \"#utility.yul\":12723:12926   */\n    tag_332:\n      pop\n      pop\n      pop\n        /* \"#utility.yul\":12972:12973   */\n      0x01\n        /* \"#utility.yul\":12963:12969   */\n      dup4\n        /* \"#utility.yul\":12960:12961   */\n      0x01\n        /* \"#utility.yul\":12956:12970   */\n      shl\n        /* \"#utility.yul\":12952:12974   */\n      add\n        /* \"#utility.yul\":12946:12950   */\n      dup5\n        /* \"#utility.yul\":12939:12975   */\n      sstore\n        /* \"#utility.yul\":12207:13236   */\n    tag_323:\n      pop\n      pop\n      pop\n        /* \"#utility.yul\":11811:13242   */\n      pop\n      pop\n      jump\t// out\n\n    auxdata: 0xa2646970667358221220531ee537e14785e53249f9ceedbd14c9684729ed940f8df7683a43f4dae814df64736f6c63430008110033\n}\n",
    "bytecode": {
      "linkReferences": {},
      "object": "608060405234801561001057600080fd5b50600180546001600160a01b0319163317905561152d806100326000396000f3fe6080604052600436106101445760003560e01c8063481c6a75116100c057806391e22d8f11610074578063cb6cbe8f11610059578063cb6cbe8f146103e2578063dfbf53ae14610402578063f82e15521461042657600080fd5b806391e22d8f14610393578063c8f17094146103b357600080fd5b80635d73753f116100a55780635d73753f1461033d57806373d4a13a1461035e5780638e4d50531461038057600080fd5b8063481c6a75146102e4578063522e11771461031c57600080fd5b8063200d2ed2116101175780632a4230e2116100fc5780632a4230e21461028b5780634051ddac146102ab5780634281cebf146102cf57600080fd5b8063200d2ed2146101d857806328f6a48a1461027657600080fd5b80630a46572f1461014957806310d2f82f14610172578063164e68de146101a35780631e1769ed146101c5575b600080fd5b34801561015557600080fd5b5061015f60075481565b6040519081526020015b60405180910390f35b34801561017e57600080fd5b506101936001546001600160a01b0316331490565b6040519015158152602001610169565b3480156101af57600080fd5b506101c36101be366004610fc6565b610446565b005b6101c36101d3366004610fe8565b6104ce565b3480156101e457600080fd5b50604080518082018252600a81527f636f6d706c6574653a20000000000000000000000000000000000000000000006020808301919091528251808401909352600983527f41776174696e673a20000000000000000000000000000000000000000000000090830152600154909160ff600160b01b8304811692600160a81b9004166040516101699493929190611047565b34801561028257600080fd5b5060025461015f565b34801561029757600080fd5b506101c36102a636600461112b565b610666565b3480156102b757600080fd5b506102c061089d565b60405161016993929190611172565b3480156102db57600080fd5b506101c3610958565b3480156102f057600080fd5b50600154610304906001600160a01b031681565b6040516001600160a01b039091168152602001610169565b34801561032857600080fd5b5060015461019390600160b01b900460ff1681565b34801561034957600080fd5b5060015461019390600160a81b900460ff1681565b34801561036a57600080fd5b50610373610a75565b60405161016991906111a4565b34801561038c57600080fd5b504761015f565b34801561039f57600080fd5b506101c36103ae3660046111b7565b610b03565b3480156103bf57600080fd5b506103d36103ce366004610fe8565b610c3a565b60405161016993929190611205565b3480156103ee57600080fd5b506101c36103fd366004610fe8565b610cfc565b34801561040e57600080fd5b50610417610e70565b6040516101699392919061122d565b34801561043257600080fd5b50610417610441366004610fe8565b610e92565b6001546001600160a01b031633146104955760405162461bcd60e51b815260206004820152600d60248201526c1058d8d95cdcc811195b9a5959609a1b60448201526064015b60405180910390fd5b6040516001600160a01b038216904780156108fc02916000818181858888f193505050501580156104ca573d6000803e3d6000fd5b5050565b6004546001600160a01b031633146105285760405162461bcd60e51b815260206004820152601560248201527f4e6f7420617574686f72697a6564206269646465720000000000000000000000604482015260640161048c565b60085434101561057a5760405162461bcd60e51b815260206004820152601360248201527f696e73756666696369656e742066756e64732100000000000000000000000000604482015260640161048c565b60085481146105cb5760405162461bcd60e51b815260206004820152601c60248201527f76616c7565206973206e6f742077686174207761732061677265656400000000604482015260640161048c565b600180547fffffffffffffffffff0000ffffffffffffffffffffffffffffffffffffffffff16600160b01b17905560405133907fddb3e8e092f582b287e510e57287106c0231b91b97d25c5872442924378808e99061065b906020808252600c908201527f5061796d656e74206d6164650000000000000000000000000000000000000000604082015260600190565b60405180910390a250565b6001546001600160a01b0316330361067d57600080fd5b600154600160b01b900460ff161561069457600080fd5b60408051606081018252338152602081018481529181018381526002805460018101825560009190915282517f405787fa12a823e0f2b7631cc41b3ba8828b3321ca811111fa75cd3aa3bb5ace6003909202918201805473ffffffffffffffffffffffffffffffffffffffff19166001600160a01b0390921691909117815593517f405787fa12a823e0f2b7631cc41b3ba8828b3321ca811111fa75cd3aa3bb5acf82015590519192839290917f405787fa12a823e0f2b7631cc41b3ba8828b3321ca811111fa75cd3aa3bb5ad0019061076e90826112de565b505060408051606081018252600254815260208101868152918101858152600380546001810182556000829052835191027fc2575a0e9e593c00f959f8c92f12db2869c3395a3b0502d05e2516446f71f85b810191825593517fc2575a0e9e593c00f959f8c92f12db2869c3395a3b0502d05e2516446f71f85c8501559051919350839290917fc2575a0e9e593c00f959f8c92f12db2869c3395a3b0502d05e2516446f71f85d9091019061082390826112de565b505050336001600160a01b03167fddb3e8e092f582b287e510e57287106c0231b91b97d25c5872442924378808e960405161088f9060208082526011908201527f437265617465642061206e657720626964000000000000000000000000000000604082015260600190565b60405180910390a250505050565b600060606000600160009054906101000a90046001600160a01b031660006002805490508180546108cd90611255565b80601f01602080910402602001604051908101604052809291908181526020018280546108f990611255565b80156109465780601f1061091b57610100808354040283529160200191610946565b820191906000526020600020905b81548152906001019060200180831161092957829003601f168201915b50505050509150925092509250909192565b6001546001600160a01b031633146109a25760405162461bcd60e51b815260206004820152600d60248201526c1058d8d95cdcc811195b9a5959609a1b604482015260640161048c565b606460085460036109b391906113b4565b6109bd91906113d1565b6109c790476113f3565b506001546040516001600160a01b03909116904780156108fc02916000818181858888f19350505050158015610a01573d6000803e3d6000fd5b50336001600160a01b03167fddb3e8e092f582b287e510e57287106c0231b91b97d25c5872442924378808e9604051610a6b906020808252600f908201527f436c61696d6564207061796d656e740000000000000000000000000000000000604082015260600190565b60405180910390a2565b60008054610a8290611255565b80601f0160208091040260200160405190810160405280929190818152602001828054610aae90611255565b8015610afb5780601f10610ad057610100808354040283529160200191610afb565b820191906000526020600020905b815481529060010190602001808311610ade57829003601f168201915b505050505081565b600154600160a01b900460ff1615610b5d5760405162461bcd60e51b815260206004820152601460248201527f41756374696f6e207374696c6c20616374697665000000000000000000000000604482015260640161048c565b6001805473ffffffffffffffffffffffffffffffffffffffff19166001600160a01b0383161790556000610b9183826112de565b50600180547fffffffffffffffffffffff00ffffffffffffffffffffffffffffffffffffffff8116600160a01b179091556040516001600160a01b03909116907fddb3e8e092f582b287e510e57287106c0231b91b97d25c5872442924378808e990610c2e9060208082526010908201527f4372656174656420612074656e64657200000000000000000000000000000000604082015260600190565b60405180910390a25050565b60038181548110610c4a57600080fd5b9060005260206000209060030201600091509050806000015490806001015490806002018054610c7990611255565b80601f0160208091040260200160405190810160405280929190818152602001828054610ca590611255565b8015610cf25780601f10610cc757610100808354040283529160200191610cf2565b820191906000526020600020905b815481529060010190602001808311610cd557829003601f168201915b5050505050905083565b6001546001600160a01b03163314610d465760405162461bcd60e51b815260206004820152600d60248201526c1058d8d95cdcc811195b9a5959609a1b604482015260640161048c565b600154600160b01b900460ff1615610d5d57600080fd5b60028181548110610d7057610d70611406565b6000918252602090912060039091020180546004805473ffffffffffffffffffffffffffffffffffffffff19166001600160a01b0390921691909117815560018201546005556006610dc5600284018261141c565b5050506007819055600554600855600180547fffffffffffffffffffff00ffffffffffffffffffffffffffffffffffffffffff16600160a81b1790556004546040516001600160a01b03909116907fddb3e8e092f582b287e510e57287106c0231b91b97d25c5872442924378808e99061065b906020808252600a908201527f417574686f72697a656400000000000000000000000000000000000000000000604082015260600190565b60048054600554600680546001600160a01b03909316939192610c7990611255565b600080606060028481548110610eaa57610eaa611406565b6000918252602090912060039091020154600280546001600160a01b039092169186908110610edb57610edb611406565b90600052602060002090600302016001015460028681548110610f0057610f00611406565b9060005260206000209060030201600201808054610f1d90611255565b80601f0160208091040260200160405190810160405280929190818152602001828054610f4990611255565b8015610f965780601f10610f6b57610100808354040283529160200191610f96565b820191906000526020600020905b815481529060010190602001808311610f7957829003601f168201915b505050505090509250925092509193909250565b80356001600160a01b0381168114610fc157600080fd5b919050565b600060208284031215610fd857600080fd5b610fe182610faa565b9392505050565b600060208284031215610ffa57600080fd5b5035919050565b6000815180845260005b818110156110275760208185018101518683018201520161100b565b506000602082860101526020601f19601f83011685010191505092915050565b60808152600061105a6080830187611001565b851515602084015282810360408401526110748186611001565b915050821515606083015295945050505050565b634e487b7160e01b600052604160045260246000fd5b600082601f8301126110af57600080fd5b813567ffffffffffffffff808211156110ca576110ca611088565b604051601f8301601f19908116603f011681019082821181831017156110f2576110f2611088565b8160405283815286602085880101111561110b57600080fd5b836020870160208301376000602085830101528094505050505092915050565b6000806040838503121561113e57600080fd5b82359150602083013567ffffffffffffffff81111561115c57600080fd5b6111688582860161109e565b9150509250929050565b6001600160a01b03841681526060602082015260006111946060830185611001565b9050826040830152949350505050565b602081526000610fe16020830184611001565b600080604083850312156111ca57600080fd5b823567ffffffffffffffff8111156111e157600080fd5b6111ed8582860161109e565b9250506111fc60208401610faa565b90509250929050565b8381528260208201526060604082015260006112246060830184611001565b95945050505050565b6001600160a01b03841681528260208201526060604082015260006112246060830184611001565b600181811c9082168061126957607f821691505b60208210810361128957634e487b7160e01b600052602260045260246000fd5b50919050565b601f8211156112d957600081815260208120601f850160051c810160208610156112b65750805b601f850160051c820191505b818110156112d5578281556001016112c2565b5050505b505050565b815167ffffffffffffffff8111156112f8576112f8611088565b61130c816113068454611255565b8461128f565b602080601f83116001811461134157600084156113295750858301515b600019600386901b1c1916600185901b1785556112d5565b600085815260208120601f198616915b8281101561137057888601518255948401946001909101908401611351565b508582101561138e5787850151600019600388901b60f8161c191681555b5050505050600190811b01905550565b634e487b7160e01b600052601160045260246000fd5b80820281158282048414176113cb576113cb61139e565b92915050565b6000826113ee57634e487b7160e01b600052601260045260246000fd5b500490565b818103818111156113cb576113cb61139e565b634e487b7160e01b600052603260045260246000fd5b818103611427575050565b6114318254611255565b67ffffffffffffffff81111561144957611449611088565b611457816113068454611255565b6000601f82116001811461148b57600083156114735750848201545b600019600385901b1c1916600184901b1784556114f0565b600085815260209020601f19841690600086815260209020845b838110156114c557828601548255600195860195909101906020016114a5565b50858310156114e35781850154600019600388901b60f8161c191681555b50505060018360011b0184555b505050505056fea2646970667358221220531ee537e14785e53249f9ceedbd14c9684729ed940f8df7683a43f4dae814df64736f6c63430008110033",
      "opcodes": "PUSH1 0x80 PUSH1 0x40 MSTORE CALLVALUE DUP1 ISZERO PUSH2 0x10 JUMPI PUSH1 0x0 DUP1 REVERT JUMPDEST POP PUSH1 0x1 DUP1 SLOAD PUSH1 0x1 PUSH1 0x1 PUSH1 0xA0 SHL SUB NOT AND CALLER OR SWAP1 SSTORE PUSH2 0x152D DUP1 PUSH2 0x32 PUSH1 0x0 CODECOPY PUSH1 0x0 RETURN INVALID PUSH1 0x80 PUSH1 0x40 MSTORE PUSH1 0x4 CALLDATASIZE LT PUSH2 0x144 JUMPI PUSH1 0x0 CALLDATALOAD PUSH1 0xE0 SHR DUP1 PUSH4 0x481C6A75 GT PUSH2 0xC0 JUMPI DUP1 PUSH4 0x91E22D8F GT PUSH2 0x74 JUMPI DUP1 PUSH4 0xCB6CBE8F GT PUSH2 0x59 JUMPI DUP1 PUSH4 0xCB6CBE8F EQ PUSH2 0x3E2 JUMPI DUP1 PUSH4 0xDFBF53AE EQ PUSH2 0x402 JUMPI DUP1 PUSH4 0xF82E1552 EQ PUSH2 0x426 JUMPI PUSH1 0x0 DUP1 REVERT JUMPDEST DUP1 PUSH4 0x91E22D8F EQ PUSH2 0x393 JUMPI DUP1 PUSH4 0xC8F17094 EQ PUSH2 0x3B3 JUMPI PUSH1 0x0 DUP1 REVERT JUMPDEST DUP1 PUSH4 0x5D73753F GT PUSH2 0xA5 JUMPI DUP1 PUSH4 0x5D73753F EQ PUSH2 0x33D JUMPI DUP1 PUSH4 0x73D4A13A EQ PUSH2 0x35E JUMPI DUP1 PUSH4 0x8E4D5053 EQ PUSH2 0x380 JUMPI PUSH1 0x0 DUP1 REVERT JUMPDEST DUP1 PUSH4 0x481C6A75 EQ PUSH2 0x2E4 JUMPI DUP1 PUSH4 0x522E1177 EQ PUSH2 0x31C JUMPI PUSH1 0x0 DUP1 REVERT JUMPDEST DUP1 PUSH4 0x200D2ED2 GT PUSH2 0x117 JUMPI DUP1 PUSH4 0x2A4230E2 GT PUSH2 0xFC JUMPI DUP1 PUSH4 0x2A4230E2 EQ PUSH2 0x28B JUMPI DUP1 PUSH4 0x4051DDAC EQ PUSH2 0x2AB JUMPI DUP1 PUSH4 0x4281CEBF EQ PUSH2 0x2CF JUMPI PUSH1 0x0 DUP1 REVERT JUMPDEST DUP1 PUSH4 0x200D2ED2 EQ PUSH2 0x1D8 JUMPI DUP1 PUSH4 0x28F6A48A EQ PUSH2 0x276 JUMPI PUSH1 0x0 DUP1 REVERT JUMPDEST DUP1 PUSH4 0xA46572F EQ PUSH2 0x149 JUMPI DUP1 PUSH4 0x10D2F82F EQ PUSH2 0x172 JUMPI DUP1 PUSH4 0x164E68DE EQ PUSH2 0x1A3 JUMPI DUP1 PUSH4 0x1E1769ED EQ PUSH2 0x1C5 JUMPI JUMPDEST PUSH1 0x0 DUP1 REVERT JUMPDEST CALLVALUE DUP1 ISZERO PUSH2 0x155 JUMPI PUSH1 0x0 DUP1 REVERT JUMPDEST POP PUSH2 0x15F PUSH1 0x7 SLOAD DUP2 JUMP JUMPDEST PUSH1 0x40 MLOAD SWAP1 DUP2 MSTORE PUSH1 0x20 ADD JUMPDEST PUSH1 0x40 MLOAD DUP1 SWAP2 SUB SWAP1 RETURN JUMPDEST CALLVALUE DUP1 ISZERO PUSH2 0x17E JUMPI PUSH1 0x0 DUP1 REVERT JUMPDEST POP PUSH2 0x193 PUSH1 0x1 SLOAD PUSH1 0x1 PUSH1 0x1 PUSH1 0xA0 SHL SUB AND CALLER EQ SWAP1 JUMP JUMPDEST PUSH1 0x40 MLOAD SWAP1 ISZERO ISZERO DUP2 MSTORE PUSH1 0x20 ADD PUSH2 0x169 JUMP JUMPDEST CALLVALUE DUP1 ISZERO PUSH2 0x1AF JUMPI PUSH1 0x0 DUP1 REVERT JUMPDEST POP PUSH2 0x1C3 PUSH2 0x1BE CALLDATASIZE PUSH1 0x4 PUSH2 0xFC6 JUMP JUMPDEST PUSH2 0x446 JUMP JUMPDEST STOP JUMPDEST PUSH2 0x1C3 PUSH2 0x1D3 CALLDATASIZE PUSH1 0x4 PUSH2 0xFE8 JUMP JUMPDEST PUSH2 0x4CE JUMP JUMPDEST CALLVALUE DUP1 ISZERO PUSH2 0x1E4 JUMPI PUSH1 0x0 DUP1 REVERT JUMPDEST POP PUSH1 0x40 DUP1 MLOAD DUP1 DUP3 ADD DUP3 MSTORE PUSH1 0xA DUP2 MSTORE PUSH32 0x636F6D706C6574653A2000000000000000000000000000000000000000000000 PUSH1 0x20 DUP1 DUP4 ADD SWAP2 SWAP1 SWAP2 MSTORE DUP3 MLOAD DUP1 DUP5 ADD SWAP1 SWAP4 MSTORE PUSH1 0x9 DUP4 MSTORE PUSH32 0x41776174696E673A200000000000000000000000000000000000000000000000 SWAP1 DUP4 ADD MSTORE PUSH1 0x1 SLOAD SWAP1 SWAP2 PUSH1 0xFF PUSH1 0x1 PUSH1 0xB0 SHL DUP4 DIV DUP2 AND SWAP3 PUSH1 0x1 PUSH1 0xA8 SHL SWAP1 DIV AND PUSH1 0x40 MLOAD PUSH2 0x169 SWAP5 SWAP4 SWAP3 SWAP2 SWAP1 PUSH2 0x1047 JUMP JUMPDEST CALLVALUE DUP1 ISZERO PUSH2 0x282 JUMPI PUSH1 0x0 DUP1 REVERT JUMPDEST POP PUSH1 0x2 SLOAD PUSH2 0x15F JUMP JUMPDEST CALLVALUE DUP1 ISZERO PUSH2 0x297 JUMPI PUSH1 0x0 DUP1 REVERT JUMPDEST POP PUSH2 0x1C3 PUSH2 0x2A6 CALLDATASIZE PUSH1 0x4 PUSH2 0x112B JUMP JUMPDEST PUSH2 0x666 JUMP JUMPDEST CALLVALUE DUP1 ISZERO PUSH2 0x2B7 JUMPI PUSH1 0x0 DUP1 REVERT JUMPDEST POP PUSH2 0x2C0 PUSH2 0x89D JUMP JUMPDEST PUSH1 0x40 MLOAD PUSH2 0x169 SWAP4 SWAP3 SWAP2 SWAP1 PUSH2 0x1172 JUMP JUMPDEST CALLVALUE DUP1 ISZERO PUSH2 0x2DB JUMPI PUSH1 0x0 DUP1 REVERT JUMPDEST POP PUSH2 0x1C3 PUSH2 0x958 JUMP JUMPDEST CALLVALUE DUP1 ISZERO PUSH2 0x2F0 JUMPI PUSH1 0x0 DUP1 REVERT JUMPDEST POP PUSH1 0x1 SLOAD PUSH2 0x304 SWAP1 PUSH1 0x1 PUSH1 0x1 PUSH1 0xA0 SHL SUB AND DUP2 JUMP JUMPDEST PUSH1 0x40 MLOAD PUSH1 0x1 PUSH1 0x1 PUSH1 0xA0 SHL SUB SWAP1 SWAP2 AND DUP2 MSTORE PUSH1 0x20 ADD PUSH2 0x169 JUMP JUMPDEST CALLVALUE DUP1 ISZERO PUSH2 0x328 JUMPI PUSH1 0x0 DUP1 REVERT JUMPDEST POP PUSH1 0x1 SLOAD PUSH2 0x193 SWAP1 PUSH1 0x1 PUSH1 0xB0 SHL SWAP1 DIV PUSH1 0xFF AND DUP2 JUMP JUMPDEST CALLVALUE DUP1 ISZERO PUSH2 0x349 JUMPI PUSH1 0x0 DUP1 REVERT JUMPDEST POP PUSH1 0x1 SLOAD PUSH2 0x193 SWAP1 PUSH1 0x1 PUSH1 0xA8 SHL SWAP1 DIV PUSH1 0xFF AND DUP2 JUMP JUMPDEST CALLVALUE DUP1 ISZERO PUSH2 0x36A JUMPI PUSH1 0x0 DUP1 REVERT JUMPDEST POP PUSH2 0x373 PUSH2 0xA75 JUMP JUMPDEST PUSH1 0x40 MLOAD PUSH2 0x169 SWAP2 SWAP1 PUSH2 0x11A4 JUMP JUMPDEST CALLVALUE DUP1 ISZERO PUSH2 0x38C JUMPI PUSH1 0x0 DUP1 REVERT JUMPDEST POP SELFBALANCE PUSH2 0x15F JUMP JUMPDEST CALLVALUE DUP1 ISZERO PUSH2 0x39F JUMPI PUSH1 0x0 DUP1 REVERT JUMPDEST POP PUSH2 0x1C3 PUSH2 0x3AE CALLDATASIZE PUSH1 0x4 PUSH2 0x11B7 JUMP JUMPDEST PUSH2 0xB03 JUMP JUMPDEST CALLVALUE DUP1 ISZERO PUSH2 0x3BF JUMPI PUSH1 0x0 DUP1 REVERT JUMPDEST POP PUSH2 0x3D3 PUSH2 0x3CE CALLDATASIZE PUSH1 0x4 PUSH2 0xFE8 JUMP JUMPDEST PUSH2 0xC3A JUMP JUMPDEST PUSH1 0x40 MLOAD PUSH2 0x169 SWAP4 SWAP3 SWAP2 SWAP1 PUSH2 0x1205 JUMP JUMPDEST CALLVALUE DUP1 ISZERO PUSH2 0x3EE JUMPI PUSH1 0x0 DUP1 REVERT JUMPDEST POP PUSH2 0x1C3 PUSH2 0x3FD CALLDATASIZE PUSH1 0x4 PUSH2 0xFE8 JUMP JUMPDEST PUSH2 0xCFC JUMP JUMPDEST CALLVALUE DUP1 ISZERO PUSH2 0x40E JUMPI PUSH1 0x0 DUP1 REVERT JUMPDEST POP PUSH2 0x417 PUSH2 0xE70 JUMP JUMPDEST PUSH1 0x40 MLOAD PUSH2 0x169 SWAP4 SWAP3 SWAP2 SWAP1 PUSH2 0x122D JUMP JUMPDEST CALLVALUE DUP1 ISZERO PUSH2 0x432 JUMPI PUSH1 0x0 DUP1 REVERT JUMPDEST POP PUSH2 0x417 PUSH2 0x441 CALLDATASIZE PUSH1 0x4 PUSH2 0xFE8 JUMP JUMPDEST PUSH2 0xE92 JUMP JUMPDEST PUSH1 0x1 SLOAD PUSH1 0x1 PUSH1 0x1 PUSH1 0xA0 SHL SUB AND CALLER EQ PUSH2 0x495 JUMPI PUSH1 0x40 MLOAD PUSH3 0x461BCD PUSH1 0xE5 SHL DUP2 MSTORE PUSH1 0x20 PUSH1 0x4 DUP3 ADD MSTORE PUSH1 0xD PUSH1 0x24 DUP3 ADD MSTORE PUSH13 0x1058D8D95CDCC811195B9A5959 PUSH1 0x9A SHL PUSH1 0x44 DUP3 ADD MSTORE PUSH1 0x64 ADD JUMPDEST PUSH1 0x40 MLOAD DUP1 SWAP2 SUB SWAP1 REVERT JUMPDEST PUSH1 0x40 MLOAD PUSH1 0x1 PUSH1 0x1 PUSH1 0xA0 SHL SUB DUP3 AND SWAP1 SELFBALANCE DUP1 ISZERO PUSH2 0x8FC MUL SWAP2 PUSH1 0x0 DUP2 DUP2 DUP2 DUP6 DUP9 DUP9 CALL SWAP4 POP POP POP POP ISZERO DUP1 ISZERO PUSH2 0x4CA JUMPI RETURNDATASIZE PUSH1 0x0 DUP1 RETURNDATACOPY RETURNDATASIZE PUSH1 0x0 REVERT JUMPDEST POP POP JUMP JUMPDEST PUSH1 0x4 SLOAD PUSH1 0x1 PUSH1 0x1 PUSH1 0xA0 SHL SUB AND CALLER EQ PUSH2 0x528 JUMPI PUSH1 0x40 MLOAD PUSH3 0x461BCD PUSH1 0xE5 SHL DUP2 MSTORE PUSH1 0x20 PUSH1 0x4 DUP3 ADD MSTORE PUSH1 0x15 PUSH1 0x24 DUP3 ADD MSTORE PUSH32 0x4E6F7420617574686F72697A6564206269646465720000000000000000000000 PUSH1 0x44 DUP3 ADD MSTORE PUSH1 0x64 ADD PUSH2 0x48C JUMP JUMPDEST PUSH1 0x8 SLOAD CALLVALUE LT ISZERO PUSH2 0x57A JUMPI PUSH1 0x40 MLOAD PUSH3 0x461BCD PUSH1 0xE5 SHL DUP2 MSTORE PUSH1 0x20 PUSH1 0x4 DUP3 ADD MSTORE PUSH1 0x13 PUSH1 0x24 DUP3 ADD MSTORE PUSH32 0x696E73756666696369656E742066756E64732100000000000000000000000000 PUSH1 0x44 DUP3 ADD MSTORE PUSH1 0x64 ADD PUSH2 0x48C JUMP JUMPDEST PUSH1 0x8 SLOAD DUP2 EQ PUSH2 0x5CB JUMPI PUSH1 0x40 MLOAD PUSH3 0x461BCD PUSH1 0xE5 SHL DUP2 MSTORE PUSH1 0x20 PUSH1 0x4 DUP3 ADD MSTORE PUSH1 0x1C PUSH1 0x24 DUP3 ADD MSTORE PUSH32 0x76616C7565206973206E6F742077686174207761732061677265656400000000 PUSH1 0x44 DUP3 ADD MSTORE PUSH1 0x64 ADD PUSH2 0x48C JUMP JUMPDEST PUSH1 0x1 DUP1 SLOAD PUSH32 0xFFFFFFFFFFFFFFFFFF0000FFFFFFFFFFFFFFFFFFFFFFFFFFFFFFFFFFFFFFFFFF AND PUSH1 0x1 PUSH1 0xB0 SHL OR SWAP1 SSTORE PUSH1 0x40 MLOAD CALLER SWAP1 PUSH32 0xDDB3E8E092F582B287E510E57287106C0231B91B97D25C5872442924378808E9 SWAP1 PUSH2 0x65B SWAP1 PUSH1 0x20 DUP1 DUP3 MSTORE PUSH1 0xC SWAP1 DUP3 ADD MSTORE PUSH32 0x5061796D656E74206D6164650000000000000000000000000000000000000000 PUSH1 0x40 DUP3 ADD MSTORE PUSH1 0x60 ADD SWAP1 JUMP JUMPDEST PUSH1 0x40 MLOAD DUP1 SWAP2 SUB SWAP1 LOG2 POP JUMP JUMPDEST PUSH1 0x1 SLOAD PUSH1 0x1 PUSH1 0x1 PUSH1 0xA0 SHL SUB AND CALLER SUB PUSH2 0x67D JUMPI PUSH1 0x0 DUP1 REVERT JUMPDEST PUSH1 0x1 SLOAD PUSH1 0x1 PUSH1 0xB0 SHL SWAP1 DIV PUSH1 0xFF AND ISZERO PUSH2 0x694 JUMPI PUSH1 0x0 DUP1 REVERT JUMPDEST PUSH1 0x40 DUP1 MLOAD PUSH1 0x60 DUP2 ADD DUP3 MSTORE CALLER DUP2 MSTORE PUSH1 0x20 DUP2 ADD DUP5 DUP2 MSTORE SWAP2 DUP2 ADD DUP4 DUP2 MSTORE PUSH1 0x2 DUP1 SLOAD PUSH1 0x1 DUP2 ADD DUP3 SSTORE PUSH1 0x0 SWAP2 SWAP1 SWAP2 MSTORE DUP3 MLOAD PUSH32 0x405787FA12A823E0F2B7631CC41B3BA8828B3321CA811111FA75CD3AA3BB5ACE PUSH1 0x3 SWAP1 SWAP3 MUL SWAP2 DUP3 ADD DUP1 SLOAD PUSH20 0xFFFFFFFFFFFFFFFFFFFFFFFFFFFFFFFFFFFFFFFF NOT AND PUSH1 0x1 PUSH1 0x1 PUSH1 0xA0 SHL SUB SWAP1 SWAP3 AND SWAP2 SWAP1 SWAP2 OR DUP2 SSTORE SWAP4 MLOAD PUSH32 0x405787FA12A823E0F2B7631CC41B3BA8828B3321CA811111FA75CD3AA3BB5ACF DUP3 ADD SSTORE SWAP1 MLOAD SWAP2 SWAP3 DUP4 SWAP3 SWAP1 SWAP2 PUSH32 0x405787FA12A823E0F2B7631CC41B3BA8828B3321CA811111FA75CD3AA3BB5AD0 ADD SWAP1 PUSH2 0x76E SWAP1 DUP3 PUSH2 0x12DE JUMP JUMPDEST POP POP PUSH1 0x40 DUP1 MLOAD PUSH1 0x60 DUP2 ADD DUP3 MSTORE PUSH1 0x2 SLOAD DUP2 MSTORE PUSH1 0x20 DUP2 ADD DUP7 DUP2 MSTORE SWAP2 DUP2 ADD DUP6 DUP2 MSTORE PUSH1 0x3 DUP1 SLOAD PUSH1 0x1 DUP2 ADD DUP3 SSTORE PUSH1 0x0 DUP3 SWAP1 MSTORE DUP4 MLOAD SWAP2 MUL PUSH32 0xC2575A0E9E593C00F959F8C92F12DB2869C3395A3B0502D05E2516446F71F85B DUP2 ADD SWAP2 DUP3 SSTORE SWAP4 MLOAD PUSH32 0xC2575A0E9E593C00F959F8C92F12DB2869C3395A3B0502D05E2516446F71F85C DUP6 ADD SSTORE SWAP1 MLOAD SWAP2 SWAP4 POP DUP4 SWAP3 SWAP1 SWAP2 PUSH32 0xC2575A0E9E593C00F959F8C92F12DB2869C3395A3B0502D05E2516446F71F85D SWAP1 SWAP2 ADD SWAP1 PUSH2 0x823 SWAP1 DUP3 PUSH2 0x12DE JUMP JUMPDEST POP POP POP CALLER PUSH1 0x1 PUSH1 0x1 PUSH1 0xA0 SHL SUB AND PUSH32 0xDDB3E8E092F582B287E510E57287106C0231B91B97D25C5872442924378808E9 PUSH1 0x40 MLOAD PUSH2 0x88F SWAP1 PUSH1 0x20 DUP1 DUP3 MSTORE PUSH1 0x11 SWAP1 DUP3 ADD MSTORE PUSH32 0x437265617465642061206E657720626964000000000000000000000000000000 PUSH1 0x40 DUP3 ADD MSTORE PUSH1 0x60 ADD SWAP1 JUMP JUMPDEST PUSH1 0x40 MLOAD DUP1 SWAP2 SUB SWAP1 LOG2 POP POP POP POP JUMP JUMPDEST PUSH1 0x0 PUSH1 0x60 PUSH1 0x0 PUSH1 0x1 PUSH1 0x0 SWAP1 SLOAD SWAP1 PUSH2 0x100 EXP SWAP1 DIV PUSH1 0x1 PUSH1 0x1 PUSH1 0xA0 SHL SUB AND PUSH1 0x0 PUSH1 0x2 DUP1 SLOAD SWAP1 POP DUP2 DUP1 SLOAD PUSH2 0x8CD SWAP1 PUSH2 0x1255 JUMP JUMPDEST DUP1 PUSH1 0x1F ADD PUSH1 0x20 DUP1 SWAP2 DIV MUL PUSH1 0x20 ADD PUSH1 0x40 MLOAD SWAP1 DUP2 ADD PUSH1 0x40 MSTORE DUP1 SWAP3 SWAP2 SWAP1 DUP2 DUP2 MSTORE PUSH1 0x20 ADD DUP3 DUP1 SLOAD PUSH2 0x8F9 SWAP1 PUSH2 0x1255 JUMP JUMPDEST DUP1 ISZERO PUSH2 0x946 JUMPI DUP1 PUSH1 0x1F LT PUSH2 0x91B JUMPI PUSH2 0x100 DUP1 DUP4 SLOAD DIV MUL DUP4 MSTORE SWAP2 PUSH1 0x20 ADD SWAP2 PUSH2 0x946 JUMP JUMPDEST DUP3 ADD SWAP2 SWAP1 PUSH1 0x0 MSTORE PUSH1 0x20 PUSH1 0x0 KECCAK256 SWAP1 JUMPDEST DUP2 SLOAD DUP2 MSTORE SWAP1 PUSH1 0x1 ADD SWAP1 PUSH1 0x20 ADD DUP1 DUP4 GT PUSH2 0x929 JUMPI DUP3 SWAP1 SUB PUSH1 0x1F AND DUP3 ADD SWAP2 JUMPDEST POP POP POP POP POP SWAP2 POP SWAP3 POP SWAP3 POP SWAP3 POP SWAP1 SWAP2 SWAP3 JUMP JUMPDEST PUSH1 0x1 SLOAD PUSH1 0x1 PUSH1 0x1 PUSH1 0xA0 SHL SUB AND CALLER EQ PUSH2 0x9A2 JUMPI PUSH1 0x40 MLOAD PUSH3 0x461BCD PUSH1 0xE5 SHL DUP2 MSTORE PUSH1 0x20 PUSH1 0x4 DUP3 ADD MSTORE PUSH1 0xD PUSH1 0x24 DUP3 ADD MSTORE PUSH13 0x1058D8D95CDCC811195B9A5959 PUSH1 0x9A SHL PUSH1 0x44 DUP3 ADD MSTORE PUSH1 0x64 ADD PUSH2 0x48C JUMP JUMPDEST PUSH1 0x64 PUSH1 0x8 SLOAD PUSH1 0x3 PUSH2 0x9B3 SWAP2 SWAP1 PUSH2 0x13B4 JUMP JUMPDEST PUSH2 0x9BD SWAP2 SWAP1 PUSH2 0x13D1 JUMP JUMPDEST PUSH2 0x9C7 SWAP1 SELFBALANCE PUSH2 0x13F3 JUMP JUMPDEST POP PUSH1 0x1 SLOAD PUSH1 0x40 MLOAD PUSH1 0x1 PUSH1 0x1 PUSH1 0xA0 SHL SUB SWAP1 SWAP2 AND SWAP1 SELFBALANCE DUP1 ISZERO PUSH2 0x8FC MUL SWAP2 PUSH1 0x0 DUP2 DUP2 DUP2 DUP6 DUP9 DUP9 CALL SWAP4 POP POP POP POP ISZERO DUP1 ISZERO PUSH2 0xA01 JUMPI RETURNDATASIZE PUSH1 0x0 DUP1 RETURNDATACOPY RETURNDATASIZE PUSH1 0x0 REVERT JUMPDEST POP CALLER PUSH1 0x1 PUSH1 0x1 PUSH1 0xA0 SHL SUB AND PUSH32 0xDDB3E8E092F582B287E510E57287106C0231B91B97D25C5872442924378808E9 PUSH1 0x40 MLOAD PUSH2 0xA6B SWAP1 PUSH1 0x20 DUP1 DUP3 MSTORE PUSH1 0xF SWAP1 DUP3 ADD MSTORE PUSH32 0x436C61696D6564207061796D656E740000000000000000000000000000000000 PUSH1 0x40 DUP3 ADD MSTORE PUSH1 0x60 ADD SWAP1 JUMP JUMPDEST PUSH1 0x40 MLOAD DUP1 SWAP2 SUB SWAP1 LOG2 JUMP JUMPDEST PUSH1 0x0 DUP1 SLOAD PUSH2 0xA82 SWAP1 PUSH2 0x1255 JUMP JUMPDEST DUP1 PUSH1 0x1F ADD PUSH1 0x20 DUP1 SWAP2 DIV MUL PUSH1 0x20 ADD PUSH1 0x40 MLOAD SWAP1 DUP2 ADD PUSH1 0x40 MSTORE DUP1 SWAP3 SWAP2 SWAP1 DUP2 DUP2 MSTORE PUSH1 0x20 ADD DUP3 DUP1 SLOAD PUSH2 0xAAE SWAP1 PUSH2 0x1255 JUMP JUMPDEST DUP1 ISZERO PUSH2 0xAFB JUMPI DUP1 PUSH1 0x1F LT PUSH2 0xAD0 JUMPI PUSH2 0x100 DUP1 DUP4 SLOAD DIV MUL DUP4 MSTORE SWAP2 PUSH1 0x20 ADD SWAP2 PUSH2 0xAFB JUMP JUMPDEST DUP3 ADD SWAP2 SWAP1 PUSH1 0x0 MSTORE PUSH1 0x20 PUSH1 0x0 KECCAK256 SWAP1 JUMPDEST DUP2 SLOAD DUP2 MSTORE SWAP1 PUSH1 0x1 ADD SWAP1 PUSH1 0x20 ADD DUP1 DUP4 GT PUSH2 0xADE JUMPI DUP3 SWAP1 SUB PUSH1 0x1F AND DUP3 ADD SWAP2 JUMPDEST POP POP POP POP POP DUP2 JUMP JUMPDEST PUSH1 0x1 SLOAD PUSH1 0x1 PUSH1 0xA0 SHL SWAP1 DIV PUSH1 0xFF AND ISZERO PUSH2 0xB5D JUMPI PUSH1 0x40 MLOAD PUSH3 0x461BCD PUSH1 0xE5 SHL DUP2 MSTORE PUSH1 0x20 PUSH1 0x4 DUP3 ADD MSTORE PUSH1 0x14 PUSH1 0x24 DUP3 ADD MSTORE PUSH32 0x41756374696F6E207374696C6C20616374697665000000000000000000000000 PUSH1 0x44 DUP3 ADD MSTORE PUSH1 0x64 ADD PUSH2 0x48C JUMP JUMPDEST PUSH1 0x1 DUP1 SLOAD PUSH20 0xFFFFFFFFFFFFFFFFFFFFFFFFFFFFFFFFFFFFFFFF NOT AND PUSH1 0x1 PUSH1 0x1 PUSH1 0xA0 SHL SUB DUP4 AND OR SWAP1 SSTORE PUSH1 0x0 PUSH2 0xB91 DUP4 DUP3 PUSH2 0x12DE JUMP JUMPDEST POP PUSH1 0x1 DUP1 SLOAD PUSH32 0xFFFFFFFFFFFFFFFFFFFFFF00FFFFFFFFFFFFFFFFFFFFFFFFFFFFFFFFFFFFFFFF DUP2 AND PUSH1 0x1 PUSH1 0xA0 SHL OR SWAP1 SWAP2 SSTORE PUSH1 0x40 MLOAD PUSH1 0x1 PUSH1 0x1 PUSH1 0xA0 SHL SUB SWAP1 SWAP2 AND SWAP1 PUSH32 0xDDB3E8E092F582B287E510E57287106C0231B91B97D25C5872442924378808E9 SWAP1 PUSH2 0xC2E SWAP1 PUSH1 0x20 DUP1 DUP3 MSTORE PUSH1 0x10 SWAP1 DUP3 ADD MSTORE PUSH32 0x4372656174656420612074656E64657200000000000000000000000000000000 PUSH1 0x40 DUP3 ADD MSTORE PUSH1 0x60 ADD SWAP1 JUMP JUMPDEST PUSH1 0x40 MLOAD DUP1 SWAP2 SUB SWAP1 LOG2 POP POP JUMP JUMPDEST PUSH1 0x3 DUP2 DUP2 SLOAD DUP2 LT PUSH2 0xC4A JUMPI PUSH1 0x0 DUP1 REVERT JUMPDEST SWAP1 PUSH1 0x0 MSTORE PUSH1 0x20 PUSH1 0x0 KECCAK256 SWAP1 PUSH1 0x3 MUL ADD PUSH1 0x0 SWAP2 POP SWAP1 POP DUP1 PUSH1 0x0 ADD SLOAD SWAP1 DUP1 PUSH1 0x1 ADD SLOAD SWAP1 DUP1 PUSH1 0x2 ADD DUP1 SLOAD PUSH2 0xC79 SWAP1 PUSH2 0x1255 JUMP JUMPDEST DUP1 PUSH1 0x1F ADD PUSH1 0x20 DUP1 SWAP2 DIV MUL PUSH1 0x20 ADD PUSH1 0x40 MLOAD SWAP1 DUP2 ADD PUSH1 0x40 MSTORE DUP1 SWAP3 SWAP2 SWAP1 DUP2 DUP2 MSTORE PUSH1 0x20 ADD DUP3 DUP1 SLOAD PUSH2 0xCA5 SWAP1 PUSH2 0x1255 JUMP JUMPDEST DUP1 ISZERO PUSH2 0xCF2 JUMPI DUP1 PUSH1 0x1F LT PUSH2 0xCC7 JUMPI PUSH2 0x100 DUP1 DUP4 SLOAD DIV MUL DUP4 MSTORE SWAP2 PUSH1 0x20 ADD SWAP2 PUSH2 0xCF2 JUMP JUMPDEST DUP3 ADD SWAP2 SWAP1 PUSH1 0x0 MSTORE PUSH1 0x20 PUSH1 0x0 KECCAK256 SWAP1 JUMPDEST DUP2 SLOAD DUP2 MSTORE SWAP1 PUSH1 0x1 ADD SWAP1 PUSH1 0x20 ADD DUP1 DUP4 GT PUSH2 0xCD5 JUMPI DUP3 SWAP1 SUB PUSH1 0x1F AND DUP3 ADD SWAP2 JUMPDEST POP POP POP POP POP SWAP1 POP DUP4 JUMP JUMPDEST PUSH1 0x1 SLOAD PUSH1 0x1 PUSH1 0x1 PUSH1 0xA0 SHL SUB AND CALLER EQ PUSH2 0xD46 JUMPI PUSH1 0x40 MLOAD PUSH3 0x461BCD PUSH1 0xE5 SHL DUP2 MSTORE PUSH1 0x20 PUSH1 0x4 DUP3 ADD MSTORE PUSH1 0xD PUSH1 0x24 DUP3 ADD MSTORE PUSH13 0x1058D8D95CDCC811195B9A5959 PUSH1 0x9A SHL PUSH1 0x44 DUP3 ADD MSTORE PUSH1 0x64 ADD PUSH2 0x48C JUMP JUMPDEST PUSH1 0x1 SLOAD PUSH1 0x1 PUSH1 0xB0 SHL SWAP1 DIV PUSH1 0xFF AND ISZERO PUSH2 0xD5D JUMPI PUSH1 0x0 DUP1 REVERT JUMPDEST PUSH1 0x2 DUP2 DUP2 SLOAD DUP2 LT PUSH2 0xD70 JUMPI PUSH2 0xD70 PUSH2 0x1406 JUMP JUMPDEST PUSH1 0x0 SWAP2 DUP3 MSTORE PUSH1 0x20 SWAP1 SWAP2 KECCAK256 PUSH1 0x3 SWAP1 SWAP2 MUL ADD DUP1 SLOAD PUSH1 0x4 DUP1 SLOAD PUSH20 0xFFFFFFFFFFFFFFFFFFFFFFFFFFFFFFFFFFFFFFFF NOT AND PUSH1 0x1 PUSH1 0x1 PUSH1 0xA0 SHL SUB SWAP1 SWAP3 AND SWAP2 SWAP1 SWAP2 OR DUP2 SSTORE PUSH1 0x1 DUP3 ADD SLOAD PUSH1 0x5 SSTORE PUSH1 0x6 PUSH2 0xDC5 PUSH1 0x2 DUP5 ADD DUP3 PUSH2 0x141C JUMP JUMPDEST POP POP POP PUSH1 0x7 DUP2 SWAP1 SSTORE PUSH1 0x5 SLOAD PUSH1 0x8 SSTORE PUSH1 0x1 DUP1 SLOAD PUSH32 0xFFFFFFFFFFFFFFFFFFFF00FFFFFFFFFFFFFFFFFFFFFFFFFFFFFFFFFFFFFFFFFF AND PUSH1 0x1 PUSH1 0xA8 SHL OR SWAP1 SSTORE PUSH1 0x4 SLOAD PUSH1 0x40 MLOAD PUSH1 0x1 PUSH1 0x1 PUSH1 0xA0 SHL SUB SWAP1 SWAP2 AND SWAP1 PUSH32 0xDDB3E8E092F582B287E510E57287106C0231B91B97D25C5872442924378808E9 SWAP1 PUSH2 0x65B SWAP1 PUSH1 0x20 DUP1 DUP3 MSTORE PUSH1 0xA SWAP1 DUP3 ADD MSTORE PUSH32 0x417574686F72697A656400000000000000000000000000000000000000000000 PUSH1 0x40 DUP3 ADD MSTORE PUSH1 0x60 ADD SWAP1 JUMP JUMPDEST PUSH1 0x4 DUP1 SLOAD PUSH1 0x5 SLOAD PUSH1 0x6 DUP1 SLOAD PUSH1 0x1 PUSH1 0x1 PUSH1 0xA0 SHL SUB SWAP1 SWAP4 AND SWAP4 SWAP2 SWAP3 PUSH2 0xC79 SWAP1 PUSH2 0x1255 JUMP JUMPDEST PUSH1 0x0 DUP1 PUSH1 0x60 PUSH1 0x2 DUP5 DUP2 SLOAD DUP2 LT PUSH2 0xEAA JUMPI PUSH2 0xEAA PUSH2 0x1406 JUMP JUMPDEST PUSH1 0x0 SWAP2 DUP3 MSTORE PUSH1 0x20 SWAP1 SWAP2 KECCAK256 PUSH1 0x3 SWAP1 SWAP2 MUL ADD SLOAD PUSH1 0x2 DUP1 SLOAD PUSH1 0x1 PUSH1 0x1 PUSH1 0xA0 SHL SUB SWAP1 SWAP3 AND SWAP2 DUP7 SWAP1 DUP2 LT PUSH2 0xEDB JUMPI PUSH2 0xEDB PUSH2 0x1406 JUMP JUMPDEST SWAP1 PUSH1 0x0 MSTORE PUSH1 0x20 PUSH1 0x0 KECCAK256 SWAP1 PUSH1 0x3 MUL ADD PUSH1 0x1 ADD SLOAD PUSH1 0x2 DUP7 DUP2 SLOAD DUP2 LT PUSH2 0xF00 JUMPI PUSH2 0xF00 PUSH2 0x1406 JUMP JUMPDEST SWAP1 PUSH1 0x0 MSTORE PUSH1 0x20 PUSH1 0x0 KECCAK256 SWAP1 PUSH1 0x3 MUL ADD PUSH1 0x2 ADD DUP1 DUP1 SLOAD PUSH2 0xF1D SWAP1 PUSH2 0x1255 JUMP JUMPDEST DUP1 PUSH1 0x1F ADD PUSH1 0x20 DUP1 SWAP2 DIV MUL PUSH1 0x20 ADD PUSH1 0x40 MLOAD SWAP1 DUP2 ADD PUSH1 0x40 MSTORE DUP1 SWAP3 SWAP2 SWAP1 DUP2 DUP2 MSTORE PUSH1 0x20 ADD DUP3 DUP1 SLOAD PUSH2 0xF49 SWAP1 PUSH2 0x1255 JUMP JUMPDEST DUP1 ISZERO PUSH2 0xF96 JUMPI DUP1 PUSH1 0x1F LT PUSH2 0xF6B JUMPI PUSH2 0x100 DUP1 DUP4 SLOAD DIV MUL DUP4 MSTORE SWAP2 PUSH1 0x20 ADD SWAP2 PUSH2 0xF96 JUMP JUMPDEST DUP3 ADD SWAP2 SWAP1 PUSH1 0x0 MSTORE PUSH1 0x20 PUSH1 0x0 KECCAK256 SWAP1 JUMPDEST DUP2 SLOAD DUP2 MSTORE SWAP1 PUSH1 0x1 ADD SWAP1 PUSH1 0x20 ADD DUP1 DUP4 GT PUSH2 0xF79 JUMPI DUP3 SWAP1 SUB PUSH1 0x1F AND DUP3 ADD SWAP2 JUMPDEST POP POP POP POP POP SWAP1 POP SWAP3 POP SWAP3 POP SWAP3 POP SWAP2 SWAP4 SWAP1 SWAP3 POP JUMP JUMPDEST DUP1 CALLDATALOAD PUSH1 0x1 PUSH1 0x1 PUSH1 0xA0 SHL SUB DUP2 AND DUP2 EQ PUSH2 0xFC1 JUMPI PUSH1 0x0 DUP1 REVERT JUMPDEST SWAP2 SWAP1 POP JUMP JUMPDEST PUSH1 0x0 PUSH1 0x20 DUP3 DUP5 SUB SLT ISZERO PUSH2 0xFD8 JUMPI PUSH1 0x0 DUP1 REVERT JUMPDEST PUSH2 0xFE1 DUP3 PUSH2 0xFAA JUMP JUMPDEST SWAP4 SWAP3 POP POP POP JUMP JUMPDEST PUSH1 0x0 PUSH1 0x20 DUP3 DUP5 SUB SLT ISZERO PUSH2 0xFFA JUMPI PUSH1 0x0 DUP1 REVERT JUMPDEST POP CALLDATALOAD SWAP2 SWAP1 POP JUMP JUMPDEST PUSH1 0x0 DUP2 MLOAD DUP1 DUP5 MSTORE PUSH1 0x0 JUMPDEST DUP2 DUP2 LT ISZERO PUSH2 0x1027 JUMPI PUSH1 0x20 DUP2 DUP6 ADD DUP2 ADD MLOAD DUP7 DUP4 ADD DUP3 ADD MSTORE ADD PUSH2 0x100B JUMP JUMPDEST POP PUSH1 0x0 PUSH1 0x20 DUP3 DUP7 ADD ADD MSTORE PUSH1 0x20 PUSH1 0x1F NOT PUSH1 0x1F DUP4 ADD AND DUP6 ADD ADD SWAP2 POP POP SWAP3 SWAP2 POP POP JUMP JUMPDEST PUSH1 0x80 DUP2 MSTORE PUSH1 0x0 PUSH2 0x105A PUSH1 0x80 DUP4 ADD DUP8 PUSH2 0x1001 JUMP JUMPDEST DUP6 ISZERO ISZERO PUSH1 0x20 DUP5 ADD MSTORE DUP3 DUP2 SUB PUSH1 0x40 DUP5 ADD MSTORE PUSH2 0x1074 DUP2 DUP7 PUSH2 0x1001 JUMP JUMPDEST SWAP2 POP POP DUP3 ISZERO ISZERO PUSH1 0x60 DUP4 ADD MSTORE SWAP6 SWAP5 POP POP POP POP POP JUMP JUMPDEST PUSH4 0x4E487B71 PUSH1 0xE0 SHL PUSH1 0x0 MSTORE PUSH1 0x41 PUSH1 0x4 MSTORE PUSH1 0x24 PUSH1 0x0 REVERT JUMPDEST PUSH1 0x0 DUP3 PUSH1 0x1F DUP4 ADD SLT PUSH2 0x10AF JUMPI PUSH1 0x0 DUP1 REVERT JUMPDEST DUP2 CALLDATALOAD PUSH8 0xFFFFFFFFFFFFFFFF DUP1 DUP3 GT ISZERO PUSH2 0x10CA JUMPI PUSH2 0x10CA PUSH2 0x1088 JUMP JUMPDEST PUSH1 0x40 MLOAD PUSH1 0x1F DUP4 ADD PUSH1 0x1F NOT SWAP1 DUP2 AND PUSH1 0x3F ADD AND DUP2 ADD SWAP1 DUP3 DUP3 GT DUP2 DUP4 LT OR ISZERO PUSH2 0x10F2 JUMPI PUSH2 0x10F2 PUSH2 0x1088 JUMP JUMPDEST DUP2 PUSH1 0x40 MSTORE DUP4 DUP2 MSTORE DUP7 PUSH1 0x20 DUP6 DUP9 ADD ADD GT ISZERO PUSH2 0x110B JUMPI PUSH1 0x0 DUP1 REVERT JUMPDEST DUP4 PUSH1 0x20 DUP8 ADD PUSH1 0x20 DUP4 ADD CALLDATACOPY PUSH1 0x0 PUSH1 0x20 DUP6 DUP4 ADD ADD MSTORE DUP1 SWAP5 POP POP POP POP POP SWAP3 SWAP2 POP POP JUMP JUMPDEST PUSH1 0x0 DUP1 PUSH1 0x40 DUP4 DUP6 SUB SLT ISZERO PUSH2 0x113E JUMPI PUSH1 0x0 DUP1 REVERT JUMPDEST DUP3 CALLDATALOAD SWAP2 POP PUSH1 0x20 DUP4 ADD CALLDATALOAD PUSH8 0xFFFFFFFFFFFFFFFF DUP2 GT ISZERO PUSH2 0x115C JUMPI PUSH1 0x0 DUP1 REVERT JUMPDEST PUSH2 0x1168 DUP6 DUP3 DUP7 ADD PUSH2 0x109E JUMP JUMPDEST SWAP2 POP POP SWAP3 POP SWAP3 SWAP1 POP JUMP JUMPDEST PUSH1 0x1 PUSH1 0x1 PUSH1 0xA0 SHL SUB DUP5 AND DUP2 MSTORE PUSH1 0x60 PUSH1 0x20 DUP3 ADD MSTORE PUSH1 0x0 PUSH2 0x1194 PUSH1 0x60 DUP4 ADD DUP6 PUSH2 0x1001 JUMP JUMPDEST SWAP1 POP DUP3 PUSH1 0x40 DUP4 ADD MSTORE SWAP5 SWAP4 POP POP POP POP JUMP JUMPDEST PUSH1 0x20 DUP2 MSTORE PUSH1 0x0 PUSH2 0xFE1 PUSH1 0x20 DUP4 ADD DUP5 PUSH2 0x1001 JUMP JUMPDEST PUSH1 0x0 DUP1 PUSH1 0x40 DUP4 DUP6 SUB SLT ISZERO PUSH2 0x11CA JUMPI PUSH1 0x0 DUP1 REVERT JUMPDEST DUP3 CALLDATALOAD PUSH8 0xFFFFFFFFFFFFFFFF DUP2 GT ISZERO PUSH2 0x11E1 JUMPI PUSH1 0x0 DUP1 REVERT JUMPDEST PUSH2 0x11ED DUP6 DUP3 DUP7 ADD PUSH2 0x109E JUMP JUMPDEST SWAP3 POP POP PUSH2 0x11FC PUSH1 0x20 DUP5 ADD PUSH2 0xFAA JUMP JUMPDEST SWAP1 POP SWAP3 POP SWAP3 SWAP1 POP JUMP JUMPDEST DUP4 DUP2 MSTORE DUP3 PUSH1 0x20 DUP3 ADD MSTORE PUSH1 0x60 PUSH1 0x40 DUP3 ADD MSTORE PUSH1 0x0 PUSH2 0x1224 PUSH1 0x60 DUP4 ADD DUP5 PUSH2 0x1001 JUMP JUMPDEST SWAP6 SWAP5 POP POP POP POP POP JUMP JUMPDEST PUSH1 0x1 PUSH1 0x1 PUSH1 0xA0 SHL SUB DUP5 AND DUP2 MSTORE DUP3 PUSH1 0x20 DUP3 ADD MSTORE PUSH1 0x60 PUSH1 0x40 DUP3 ADD MSTORE PUSH1 0x0 PUSH2 0x1224 PUSH1 0x60 DUP4 ADD DUP5 PUSH2 0x1001 JUMP JUMPDEST PUSH1 0x1 DUP2 DUP2 SHR SWAP1 DUP3 AND DUP1 PUSH2 0x1269 JUMPI PUSH1 0x7F DUP3 AND SWAP2 POP JUMPDEST PUSH1 0x20 DUP3 LT DUP2 SUB PUSH2 0x1289 JUMPI PUSH4 0x4E487B71 PUSH1 0xE0 SHL PUSH1 0x0 MSTORE PUSH1 0x22 PUSH1 0x4 MSTORE PUSH1 0x24 PUSH1 0x0 REVERT JUMPDEST POP SWAP2 SWAP1 POP JUMP JUMPDEST PUSH1 0x1F DUP3 GT ISZERO PUSH2 0x12D9 JUMPI PUSH1 0x0 DUP2 DUP2 MSTORE PUSH1 0x20 DUP2 KECCAK256 PUSH1 0x1F DUP6 ADD PUSH1 0x5 SHR DUP2 ADD PUSH1 0x20 DUP7 LT ISZERO PUSH2 0x12B6 JUMPI POP DUP1 JUMPDEST PUSH1 0x1F DUP6 ADD PUSH1 0x5 SHR DUP3 ADD SWAP2 POP JUMPDEST DUP2 DUP2 LT ISZERO PUSH2 0x12D5 JUMPI DUP3 DUP2 SSTORE PUSH1 0x1 ADD PUSH2 0x12C2 JUMP JUMPDEST POP POP POP JUMPDEST POP POP POP JUMP JUMPDEST DUP2 MLOAD PUSH8 0xFFFFFFFFFFFFFFFF DUP2 GT ISZERO PUSH2 0x12F8 JUMPI PUSH2 0x12F8 PUSH2 0x1088 JUMP JUMPDEST PUSH2 0x130C DUP2 PUSH2 0x1306 DUP5 SLOAD PUSH2 0x1255 JUMP JUMPDEST DUP5 PUSH2 0x128F JUMP JUMPDEST PUSH1 0x20 DUP1 PUSH1 0x1F DUP4 GT PUSH1 0x1 DUP2 EQ PUSH2 0x1341 JUMPI PUSH1 0x0 DUP5 ISZERO PUSH2 0x1329 JUMPI POP DUP6 DUP4 ADD MLOAD JUMPDEST PUSH1 0x0 NOT PUSH1 0x3 DUP7 SWAP1 SHL SHR NOT AND PUSH1 0x1 DUP6 SWAP1 SHL OR DUP6 SSTORE PUSH2 0x12D5 JUMP JUMPDEST PUSH1 0x0 DUP6 DUP2 MSTORE PUSH1 0x20 DUP2 KECCAK256 PUSH1 0x1F NOT DUP7 AND SWAP2 JUMPDEST DUP3 DUP2 LT ISZERO PUSH2 0x1370 JUMPI DUP9 DUP7 ADD MLOAD DUP3 SSTORE SWAP5 DUP5 ADD SWAP5 PUSH1 0x1 SWAP1 SWAP2 ADD SWAP1 DUP5 ADD PUSH2 0x1351 JUMP JUMPDEST POP DUP6 DUP3 LT ISZERO PUSH2 0x138E JUMPI DUP8 DUP6 ADD MLOAD PUSH1 0x0 NOT PUSH1 0x3 DUP9 SWAP1 SHL PUSH1 0xF8 AND SHR NOT AND DUP2 SSTORE JUMPDEST POP POP POP POP POP PUSH1 0x1 SWAP1 DUP2 SHL ADD SWAP1 SSTORE POP JUMP JUMPDEST PUSH4 0x4E487B71 PUSH1 0xE0 SHL PUSH1 0x0 MSTORE PUSH1 0x11 PUSH1 0x4 MSTORE PUSH1 0x24 PUSH1 0x0 REVERT JUMPDEST DUP1 DUP3 MUL DUP2 ISZERO DUP3 DUP3 DIV DUP5 EQ OR PUSH2 0x13CB JUMPI PUSH2 0x13CB PUSH2 0x139E JUMP JUMPDEST SWAP3 SWAP2 POP POP JUMP JUMPDEST PUSH1 0x0 DUP3 PUSH2 0x13EE JUMPI PUSH4 0x4E487B71 PUSH1 0xE0 SHL PUSH1 0x0 MSTORE PUSH1 0x12 PUSH1 0x4 MSTORE PUSH1 0x24 PUSH1 0x0 REVERT JUMPDEST POP DIV SWAP1 JUMP JUMPDEST DUP2 DUP2 SUB DUP2 DUP2 GT ISZERO PUSH2 0x13CB JUMPI PUSH2 0x13CB PUSH2 0x139E JUMP JUMPDEST PUSH4 0x4E487B71 PUSH1 0xE0 SHL PUSH1 0x0 MSTORE PUSH1 0x32 PUSH1 0x4 MSTORE PUSH1 0x24 PUSH1 0x0 REVERT JUMPDEST DUP2 DUP2 SUB PUSH2 0x1427 JUMPI POP POP JUMP JUMPDEST PUSH2 0x1431 DUP3 SLOAD PUSH2 0x1255 JUMP JUMPDEST PUSH8 0xFFFFFFFFFFFFFFFF DUP2 GT ISZERO PUSH2 0x1449 JUMPI PUSH2 0x1449 PUSH2 0x1088 JUMP JUMPDEST PUSH2 0x1457 DUP2 PUSH2 0x1306 DUP5 SLOAD PUSH2 0x1255 JUMP JUMPDEST PUSH1 0x0 PUSH1 0x1F DUP3 GT PUSH1 0x1 DUP2 EQ PUSH2 0x148B JUMPI PUSH1 0x0 DUP4 ISZERO PUSH2 0x1473 JUMPI POP DUP5 DUP3 ADD SLOAD JUMPDEST PUSH1 0x0 NOT PUSH1 0x3 DUP6 SWAP1 SHL SHR NOT AND PUSH1 0x1 DUP5 SWAP1 SHL OR DUP5 SSTORE PUSH2 0x14F0 JUMP JUMPDEST PUSH1 0x0 DUP6 DUP2 MSTORE PUSH1 0x20 SWAP1 KECCAK256 PUSH1 0x1F NOT DUP5 AND SWAP1 PUSH1 0x0 DUP7 DUP2 MSTORE PUSH1 0x20 SWAP1 KECCAK256 DUP5 JUMPDEST DUP4 DUP2 LT ISZERO PUSH2 0x14C5 JUMPI DUP3 DUP7 ADD SLOAD DUP3 SSTORE PUSH1 0x1 SWAP6 DUP7 ADD SWAP6 SWAP1 SWAP2 ADD SWAP1 PUSH1 0x20 ADD PUSH2 0x14A5 JUMP JUMPDEST POP DUP6 DUP4 LT ISZERO PUSH2 0x14E3 JUMPI DUP2 DUP6 ADD SLOAD PUSH1 0x0 NOT PUSH1 0x3 DUP9 SWAP1 SHL PUSH1 0xF8 AND SHR NOT AND DUP2 SSTORE JUMPDEST POP POP POP PUSH1 0x1 DUP4 PUSH1 0x1 SHL ADD DUP5 SSTORE JUMPDEST POP POP POP POP POP JUMP INVALID LOG2 PUSH5 0x6970667358 0x22 SLT KECCAK256 MSTORE8 0x1E 0xE5 CALLDATACOPY 0xE1 SELFBALANCE DUP6 0xE5 ORIGIN 0x49 0xF9 0xCE 0xED 0xBD EQ 0xC9 PUSH9 0x4729ED940F8DF7683A NUMBER DELEGATECALL 0xDA 0xE8 EQ 0xDF PUSH5 0x736F6C6343 STOP ADDMOD GT STOP CALLER "
    },
    "gasEstimates": {
      "creation": {
        "codeDepositCost": "1084200",
        "executionCost": "25362",
        "totalCost": "1109562"
      },
      "external": {
        "CreateTender(string,address)": "infinite",
        "awaiting()": "2372",
        "complete()": "2395",
        "data()": "infinite",
        "finalizeBid(uint256)": "infinite",
        "getBidCount()": "2349",
        "getBidSummary(uint256)": "infinite",
        "getSummary()": "infinite",
        "getcontractBalance()": "272",
        "hiddenBids(uint256)": "infinite",
        "makeBid(uint256,string)": "infinite",
        "manager()": "2383",
        "payBid(uint256)": "32910",
        "recievePay()": "infinite",
        "status()": "infinite",
        "verifyManager()": "2370",
        "winIndex()": "2308",
        "winner()": "infinite",
        "withdrawFees(address)": "infinite"
      }
    },
    "methodIdentifiers": {
      "CreateTender(string,address)": "91e22d8f",
      "awaiting()": "5d73753f",
      "complete()": "522e1177",
      "data()": "73d4a13a",
      "finalizeBid(uint256)": "cb6cbe8f",
      "getBidCount()": "28f6a48a",
      "getBidSummary(uint256)": "f82e1552",
      "getSummary()": "4051ddac",
      "getcontractBalance()": "8e4d5053",
      "hiddenBids(uint256)": "c8f17094",
      "makeBid(uint256,string)": "2a4230e2",
      "manager()": "481c6a75",
      "payBid(uint256)": "1e1769ed",
      "recievePay()": "4281cebf",
      "status()": "200d2ed2",
      "verifyManager()": "10d2f82f",
      "winIndex()": "0a46572f",
      "winner()": "dfbf53ae",
      "withdrawFees(address)": "164e68de"
    }
  },
  "storageLayout": {
    "storage": [
      {
        "astId": 9,
        "contract": "tender.sol:Tender",
        "label": "data",
        "offset": 0,
        "slot": "0",
        "type": "t_string_storage"
      },
      {
        "astId": 11,
        "contract": "tender.sol:Tender",
        "label": "manager",
        "offset": 0,
        "slot": "1",
        "type": "t_address_payable"
      },
      {
        "astId": 13,
        "contract": "tender.sol:Tender",
        "label": "isActive",
        "offset": 20,
        "slot": "1",
        "type": "t_bool"
      },
      {
        "astId": 15,
        "contract": "tender.sol:Tender",
        "label": "awaiting",
        "offset": 21,
        "slot": "1",
        "type": "t_bool"
      },
      {
        "astId": 17,
        "contract": "tender.sol:Tender",
        "label": "complete",
        "offset": 22,
        "slot": "1",
        "type": "t_bool"
      },
      {
        "astId": 36,
        "contract": "tender.sol:Tender",
        "label": "bids",
        "offset": 0,
        "slot": "2",
        "type": "t_array(t_struct(Bid)24_storage)dyn_storage"
      },
      {
        "astId": 40,
        "contract": "tender.sol:Tender",
        "label": "hiddenBids",
        "offset": 0,
        "slot": "3",
        "type": "t_array(t_struct(hiddenBid)31_storage)dyn_storage"
      },
      {
        "astId": 43,
        "contract": "tender.sol:Tender",
        "label": "winner",
        "offset": 0,
        "slot": "4",
        "type": "t_struct(Bid)24_storage"
      },
      {
        "astId": 45,
        "contract": "tender.sol:Tender",
        "label": "winIndex",
        "offset": 0,
        "slot": "7",
        "type": "t_uint256"
      },
      {
        "astId": 47,
        "contract": "tender.sol:Tender",
        "label": "bid_amount",
        "offset": 0,
        "slot": "8",
        "type": "t_uint256"
      }
    ],
    "types": {
      "t_address": {
        "encoding": "inplace",
        "label": "address",
        "numberOfBytes": "20"
      },
      "t_address_payable": {
        "encoding": "inplace",
        "label": "address payable",
        "numberOfBytes": "20"
      },
      "t_array(t_struct(Bid)24_storage)dyn_storage": {
        "base": "t_struct(Bid)24_storage",
        "encoding": "dynamic_array",
        "label": "struct Tender.Bid[]",
        "numberOfBytes": "32"
      },
      "t_array(t_struct(hiddenBid)31_storage)dyn_storage": {
        "base": "t_struct(hiddenBid)31_storage",
        "encoding": "dynamic_array",
        "label": "struct Tender.hiddenBid[]",
        "numberOfBytes": "32"
      },
      "t_bool": {
        "encoding": "inplace",
        "label": "bool",
        "numberOfBytes": "1"
      },
      "t_string_storage": {
        "encoding": "bytes",
        "label": "string",
        "numberOfBytes": "32"
      },
      "t_struct(Bid)24_storage": {
        "encoding": "inplace",
        "label": "struct Tender.Bid",
        "members": [
          {
            "astId": 19,
            "contract": "tender.sol:Tender",
            "label": "bidder",
            "offset": 0,
            "slot": "0",
            "type": "t_address"
          },
          {
            "astId": 21,
            "contract": "tender.sol:Tender",
            "label": "bidAmount",
            "offset": 0,
            "slot": "1",
            "type": "t_uint256"
          },
          {
            "astId": 23,
            "contract": "tender.sol:Tender",
            "label": "bid",
            "offset": 0,
            "slot": "2",
            "type": "t_string_storage"
          }
        ],
        "numberOfBytes": "96"
      },
      "t_struct(hiddenBid)31_storage": {
        "encoding": "inplace",
        "label": "struct Tender.hiddenBid",
        "members": [
          {
            "astId": 26,
            "contract": "tender.sol:Tender",
            "label": "ID",
            "offset": 0,
            "slot": "0",
            "type": "t_uint256"
          },
          {
            "astId": 28,
            "contract": "tender.sol:Tender",
            "label": "bidAmount",
            "offset": 0,
            "slot": "1",
            "type": "t_uint256"
          },
          {
            "astId": 30,
            "contract": "tender.sol:Tender",
            "label": "bid",
            "offset": 0,
            "slot": "2",
            "type": "t_string_storage"
          }
        ],
        "numberOfBytes": "96"
      },
      "t_uint256": {
        "encoding": "inplace",
        "label": "uint256",
        "numberOfBytes": "32"
      }
    }
  },
  "userdoc": {
    "kind": "user",
    "methods": {},
    "version": 1
  }
}